:10300000E0ECF0E0808182608083E1ECF0E08081A0
:10301000886080836A9A509A08950F931F93F8945A
:1030200000912701109128012091290130912A0156
:103030007894400F511F621F731FFC01408351831E
:10304000628373831F910F910895FC01E757FF4F2F
:1030500030810296FC01432F20E0415019F051913C
:10306000250FFBCF3150FC01E30FF11D209581E0CE
:103070009081921380E00895FC0122812A3651F458
:10308000E757FF4F2081253029F40E94251891E051
:10309000811101C090E0892F0895CF93DF93CDB7C0
:1030A000DEB72D970FB6F894DEBF0FBECDBF282E2A
:1030B00080910001806C8093000180910101876004
:1030C000809301010E94491E222059F120E030E046
:1030D000C12CD12CE0E0F0E0AF0140585F4F80E020
:1030E00090E04E175F0741F0BF016F5F7F4FE491A3
:1030F0008E0F911DFB01F5CF820F931FC80ED91EB5
:103100002F5F3F4FFA012633310531F748E853E18D
:1031100060E070E0CE0101960E940D1856E3752E16
:1031200009C044E853E060E070E0CE0101960E94DF
:103130000D18712C1D821E821F82188642E350E0FA
:1031400060E070E0CE0105960E940D18612C46E00B
:10315000442EF89440912701509128016091290153
:1031600070912A01789489819A81AB81BC818417FE
:103170009507A607B70708F415C13EEBA32E31E06B
:10318000B32EE12CF12C0BE311E09E2CC8018657E5
:103190009F4F9B878A87FC018081882309F4A4C004
:1031A000C8010E943C18882319F1211007C0F6E0DD
:1031B0004F1204C0F801C380D4804E2CF701EE0FEB
:1031C000FF1FE050FF4F8081806C8083818187608A
:1031D0008183892D0E94521D882309F482C08DE5C8
:1031E0000E94381D872D0E94381D0E942C1D79C019
:1031F000F80182818B3D29F5F5018681843809F03B
:1032000070C0C8010E942518882309F46AC0F5011E
:103210008081871166C0B8016D5F7F4F872D0E9446
:103220008C1D73948E2D0E94521D882309F451C069
:103230008DE50E94381D872D0E94381D0E942C1D8F
:1032400048C08D3509F04DC0F5018681823009F006
:1032500048C0C8010E942518882309F442C0F8011B
:103260003380371408F03DC08E2D0E94521D8823F4
:1032700041F18BED0E94381D80E8389EF001112449
:103280004F0190E8890E911C8BED89878E169F0661
:1032900071F0CF0101969D878C875490852D0E94F7
:1032A000381D9985950D9987EC85FD85EFCF832D88
:1032B0000E94381D8985830D80950E94381D0E94CB
:1032C0002C1D42E350E060E070E0CE0105960E94C4
:1032D0000D1844E853E060E070E0CE0101960E94D2
:1032E0000D18EA85FB85108205571F4FFFEFEF1A77
:1032F000FF0A8BE8A80EB11C96E0E916F10409F06C
:1033000044CF772009F44BC0F894409127015091A5
:1033100028016091290170912A0178948D819E8104
:10332000AF81B88584179507A607B707C0F5E62DC6
:10333000F0E0EE0FFF1FE050FF4F81818770818327
:103340006394E5E0E61508F4612C461002C0642C95
:10335000F7CFE62DF0E0EE0FFF1FE050FF4F818129
:10336000886F8183862D0E94521D882381F08AE612
:103370000E94381D8C2D0E94381D80E00E94381D4F
:103380008AE68C0D80950E94381D0E942C1D42E318
:1033900050E060E070E0CE0105960E940D180E949A
:1033A000491ED7CEF8944091270150912801609191
:1033B000290170912A01789489819A81AB81BC811D
:1033C00084179507A607B70768F70E94ED1980E0F4
:1033D0000E944D1881E00E944D18F894D4E0DEBFA1
:0A33E000DFEFDDBF78940C940000CD
:103800000C94321C0C94001C0C94001C0C94001C96
:103810000C94281E0C94251E0C94FD1D0C94C71F9F
:103820000C94491E0C94EA190C94001C0C94FE1D77
:103830000C94001C0C94001C0C94001C0C94001C98
:103840000C94521EFFFEFDFBFAF8F5F2EEEAE6E0FC
:10385000DAD3CCC3BAB0A5998C7E6F5F4E3B2813E8
:103860000D090301112424E0A0E0B1E001C01D9284
:10387000A139B207E1F70E94001883B7817F846005
:1038800083BF83B7816083BFE8E6F0E08081846016
:1038900080838EE680937C00EAE7F0E080818B7F76
:1038A000808380818D7F8083808181608083269A60
:1038B000689A279A699A549A529A5E9A5D9A569A89
:1038C000559A81E080936E0082E08093700084B10D
:1038D0008F6384B987B1806C87B90E94011D5F9A9C
:1038E00085B7982F916095BF826085BFE1E6F0E0D3
:1038F00080E8808310820E94EE1D0E94BC1D0E9401
:10390000ED19B09BFECF9093890080938800B09A08
:103910000895DF92EF92FF920F931F93CF93DF935F
:10392000F82EC2EFD3E010E200E0EE24E39487E04B
:10393000D82E9881812F8F2109F445C08981943038
:10394000F0F48823E9F1923010F490E801C090E09F
:10395000282F2695922B80FF30C0FE01E757FF4F9E
:103960008081873850F48081DE01A80FB11D129646
:103970009C9380818F5F80831EC0108220C097300F
:10398000F8F4FE01803881F4E757FF4F90819923C6
:10399000B9F03196E082D882CE010E943C1888238B
:1039A00071F080E001E00CC0E657FF4F908191116B
:1039B00007C03197108280E803C0892F01C080E0E2
:1039C0008983188206C0983018F49F5F988301C0DD
:1039D0001982CB58D109169580E0C03BD80709F071
:1039E000A8CF802FDF91CF911F910F91FF90EF9083
:1039F000DF9008952E9870982F9871985C985A9837
:103A000008958FEF87BD88BD16BC95B5906895BDAC
:103A100095B5906495BD93EA94BD93E29093B00000
:103A200090E89093B3008093B4001092B200E1EB61
:103A3000F0E080818064808383B5806883BD83B536
:103A4000826083BD83B5816083BD82E085BD808354
:103A500083B58F7783BD089580EB97E10E94811C29
:103A6000B09BFECFB09AB09BFECF1092810008951C
:103A70000F931F93CF93DF93082FC8E0D0E011E09E
:103A8000812F802319F08CE096E002C08EED9EE03D
:103A90000E94811C110F219799F7DF91CF911F91FF
:103AA0000F9108959BE8899FF0011124E55CFE4F7A
:103AB000918191112FC021E030E0A90101C0440F94
:103AC0008A95EAF788E18093810010928000109235
:103AD000850010928400309389002093880083E051
:103AE000809380008CE096E090938900809388001A
:103AF000B19AB09A80916F00826080936F0040937A
:103B00008A0089E18093810080EB97E10E94811C0B
:103B100081E0089580E0089520E8829FC00111248B
:103B2000DB01E0E0F0E021E0F8944D915D910A01C5
:103B300020935700E895112478943296E038F105E7
:103B400099F7F89423E0FC0120935700E8957894C6
:103B500007B600FCFDCFF89425E0FC012093570048
:103B6000E895789407B600FCFDCFF89481E1809346
:103B70005700E89578940895CF93DF93C0E0D1E0A3
:103B8000DE01EC912E2F2295269526952370119615
:103B90008C911197982F9770990F990F922B86956A
:103BA00086958695E695EF71F0E0EC5BF74CE49135
:103BB000ED87E92FF0E0EC5BF74CE491EE87E82F1E
:103BC000F0E0EC5BF74CE491EF871296249681E0ED
:103BD000AC30B807B1F6DF91CF910895E7E2F1E09C
:103BE00080819181A281B381805F984DAF4FBF4F9B
:103BF00085839683A783B087089518951F920F92A7
:103C00000FB60F9211242F933F938F939F93909110
:103C10008A0037B186B1892327B1292B27B993B9F7
:103C20002AE12A95F1F700C093B986B99AE19A95ED
:103C3000F1F700C037B986B99F918F913F912F91CD
:103C40000F900FBE0F901F90189518950C948C1D17
:103C5000FF920F931F93CF93DF93F62E072F142F0E
:103C60000E94521D882379F087E30E94381DCF2DD2
:103C7000D02F112329F089910E94381D1150F9CFBE
:103C80000E942C1D81E0DF91CF911F910F91FF9039
:103C9000089581E080930C0180910C018111FCCF8B
:103CA0000C94BC1D1F920F920FB60F9211241F93FC
:103CB0002F933F934F935F936F937F938F939F9334
:103CC000AF93BF93CF93DF93EF93FF9316B110950C
:103CD00016B917B98AE18A95F1F700C017B816B975
:103CE00078948091260190912501C92FD0E08230EF
:103CF00009F442C028F4882351F08130D1F063C028
:103D0000833009F446C0843009F452C05CC00E947C
:103D1000FA1CCC0FDD1FCC0FDD1FC050DF4F8F858D
:103D20008F3F29F083E28093B000539A6B9A81E031
:103D30004AC06B98923081F030F4992359F0913059
:103D400081F4709A0EC0943059F040F0953049F4E7
:103D50005A9A07C02E9A05C02F9A03C0719A01C0C3
:103D60005C9ACC0FDD1FCC0FDD1FC050DF4F8F855D
:103D70008093B40082E027C08FEF8093B400CC0F13
:103D8000DD1FCC0FDD1FC050DF4F8D8587BD83E069
:103D90001AC053988093B0008FEF87BDCC0FDD1F02
:103DA000CC0FDD1FC050DF4F8E8588BD84E00BC077
:103DB0008FEF88BD9F5F963019F410920C0190E050
:103DC0009093250180E080932601812F0E94891C19
:103DD00081110E94E719C0912B0180E28C0F8D3771
:103DE00008F4BFC08091270190912801A09129017A
:103DF000B0912A010196A11DB11D809327019093D6
:103E00002801A0932901B0932A0140912C015091DF
:103E10002D0160912E0170912F01481759076A07F3
:103E20007B07D0F415BC0E94FA1C1092B10014BCA0
:103E30001092B0006B9880916D00806880936D0047
:103E4000889580916D008F7780936D000E94011D91
:103E50000E94EE1D109233018091310169B1562FFD
:103E60005095551F5527551F40913401209135011C
:103E70003091360190913001591345C041114150A4
:103E800067FD2BC02115310529F02150310911F4AE
:103E9000109237016091390170913A016F5F7F4F45
:103EA00070933A016093390169359BE1790710F00D
:103EB000806849C0613797E1790710F0806443C09A
:103EC000613D774008F43FC09091380191113BC0AB
:103ED000826091E09093380136C02115310599F147
:103EE0002150310981F590913701913011F48860AA
:103EF00007C0923011F4806103C080629093320158
:103F00001092370120C041111DC09091370167FD0B
:103F10000BC081609F3F09F09F5F10923A011092A1
:103F200039012AE431E007C084602115310509F424
:103F300090E010923801909337015093300144E1A2
:103F400091E002C044E190E080933101409334015C
:103F5000309336012093350191110E94EE1D83EAC2
:103F60008C0F80932B01FF91EF91DF91CF91BF9147
:103F7000AF919F918F917F916F915F914F913F9101
:103F80002F911F910F900FBE0F901F9018951F92A9
:103F90000F920FB60F9211242F933F934F935F937D
:103FA0006F937F938F939F93AF93BF93EF93FF9301
:103FB00086B1809586B987B99AE19A95F1F700C0E4
:103FC00017B886B978940E94891C81110E94E7195C
:103FD000FF91EF91BF91AF919F918F917F916F91E1
:103FE0005F914F913F912F910F900FBE0F901F90B7
:023FF000189522
:0400000300003800C1
:00000001FF
