:102E00009B01F8944091270150912801609129017C
:102E100070912A017894420F531F611D711DFC01AE
:102E200040835183628373830895FC01218132962C
:102E300090E0215018F08191980FFBCF81E0923DF6
:102E400009F080E008950F931F93CF93DF9300E084
:102E500010E0C0E0D0E0F8018491C80FD11D802FB0
:102E60000E94911C8C2F0E94911C8D2F0E94911CFE
:102E70000F5F1F4F0115F7E11F0769F7CE01DF91C3
:102E8000CF911F910F910895CF93C62F0E94E41CFC
:102E9000882379F08DE50E94CA1C8C2F0E94CA1CE1
:102EA00085E78C1B0E94CA1C80EB97E1CF910C94A4
:102EB000861CCF910895CF92DF92FF920F931F93BC
:102EC000CF93DF93062FF42E152F0E94E41C882346
:102ED00029F18BED0E94CA1CCF2DD12F6E0180E20B
:102EE000C80ED11C1BEDF9908F2D0E94CA1C1F0D1E
:102EF000CC16DD06C1F7802F0E94CA1C82ED801B14
:102F0000811B0E94CA1C80EB97E1DF91CF911F913A
:102F10000F91FF90DF90CF900C94861CDF91CF91A2
:102F20001F910F91FF90DF90CF900895CF93DF9383
:102F3000C0E0D1E0DE01EC912E2F2295269526955A
:102F4000237011968C911197982F9770990F990F64
:102F5000922B869586958695E695EF71F0E0EC5B71
:102F6000F74CE491ED87E92FF0E0EC5BF74CE4914E
:102F7000EE87E82FF0E0EC5BF74CE491EF871296D8
:102F8000249681E0AC30B807B1F6DF91CF91089577
:102F90008CE0E0E0F1E0DF011D928A95E9F7089509
:102FA000FF920F931F93CF93DF93F62E072F142FCB
:102FB0000E94E41C882389F087E30E94CA1CCF2D5D
:102FC000D02F112329F089910E94CA1C1150F9CFEA
:102FD00080EB97E10E94861C81E0DF91CF911F91E9
:102FE0000F91FF900895CF93DF93CDB7DEB7CB5B02
:102FF000D1090FB6F894DEBF0FBECDBFC455DF4F69
:103000008883CC5AD0400E94BE1D81E08093490243
:103010000E94C817C455DF4F2881CC5AD0402223C4
:10302000B9F00E9423172C0168E873E1CE018F5597
:103030009F4F0E9400173EE2C655DF4F3883CA5AA1
:10304000D0401FE300E088EBF82E96E0B92E45C093
:103050001BE3812E11E0912EE12CF12C1DE2BE2C00
:103060001E9D60011F9DD00C1124F601E55CFE4FF2
:103070008081882309F4ADC082818B3009F0A9C01A
:103080008181843009F0A5C0C4010E9415178823EE
:1030900009F49FC0F601E35CFE4F4180528001E0DD
:1030A0000E0D063019F400E0B5E0BB2E81E090E093
:1030B0000B2C01C0880F0A94EAF7182F10951F7384
:1030C00060E070E0CE018F559F4F0E940017C655FB
:1030D000DF4F1882CA5AD040F12CCB55DF4F1882EF
:1030E00019821A821B82C55AD04010923101CB54EA
:1030F000DF4F4882C55BD040CA54DF4F5882C65B61
:10310000D04087EC282E24182518C954DF4F288278
:10311000C75BD04043E0C755DF4F4883C95AD04012
:10312000C555DF4F1882CB5AD0407AEBE72E8B2D56
:1031300090E05DE2589F9001599F300D1124F901F4
:10314000E55CFE4F1F01AF014E5F5F4FC155DF4F82
:1031500059834883CF5AD040F901E35CFE4FCF54E6
:10316000DF4FF983E883C15BD0409C01220F331FFE
:10317000CD54DF4F39832883C35BD0403196C85488
:10318000DF4FF983E883C85BD04020503F4FC355E1
:10319000DF4F39832883CD5AD0403E0131E8630E9A
:1031A000711CA301405E5F4FC654DF4F59834883B3
:1031B000CA5BD040C455DF4F5881CC5AD04055230C
:1031C00019F0112309F412C18091310180FF0DC063
:1031D0000DC19FEFE91AF90AEDE28E0E911CF6E09F
:1031E000EF16F10409F03BCF61CFC455DF4F2881C2
:1031F000CC5AD0402111AAC1F1018081882309F461
:10320000A5C1C155DF4FE881F981CF5AD0408081F7
:103210008B3D09F078C1F1018181833209F073C1DE
:10322000C1010E941517882309F46DC1CF54DF4FE7
:10323000E881F981C15BD04081A18F1178C1CD5463
:10324000DF4FE881F981C35BD040E050FF4F8181BF
:1032500087709F2D9295990F907E892B81838F2D5A
:103260008370A1E0B0E0AC0FBD1FF0E28F9FA00D16
:10327000B11D112490E2C854DF4FE881F981C85B89
:10328000D04001900D929A95E1F78330A9F4BE01E8
:103290006F5F7F4FC655DF4F8881CA5AD0400E946A
:1032A000A11DC655DF4F2881CA5AD0402F5FC65591
:1032B000DF4F2883CA5AD040F39438EBF3123DC154
:1032C000C355DF4FE881F981CD5AD0408081806CB1
:1032D000808383E08183A12C111131C169EB8B2D97
:1032E0000E94441768EBF62EF1011082C02ED12CFB
:1032F000FDE2FC9D4001FD9D900C1124F401E55C74
:10330000FE4F8081882309F431C182818D3509F017
:103310002BC18181833009F027C1CF010E9415178D
:10332000882309F421C121E030E0002E01C0220FE2
:103330000A94EAF7C555DF4F4881CB5AD040422B5B
:10334000C555DF4F4883CB5AD040F401E35CFE4FB4
:10335000E180C601880F991F57EB5E1508F002C186
:10336000E9EBEE12F5C020951223FC01E050FF4F6F
:103370002081206C208321812760218399249394CC
:10338000FC01E050FF4F818187709E2D9295990F2F
:10339000907E892B81832DE22C9DF0012D9DF00DD7
:1033A0001124E55CFE4F1082EF1408F4E1C0F8949C
:1033B00040912701509128016091290170912A01C3
:1033C0007894CB55DF4F88819981AA81BB81C55AFA
:1033D000D04084179507A607B70708F409C19110D4
:1033E000DDC10E949617AA2009F4E4CE03E010E0A4
:1033F000812F0E94E41C882351F088EE0E94CA1C91
:103400008AEE0E94CA1C80EB97E10E94861C1F5F17
:10341000163071F7015059F788EBF81288C10E94F5
:1034200023174816590609F082C180910001806C6B
:103430008093000180910101887F83608093010166
:1034400080910201806C8093020180910301887F4A
:1034500083608093030180910401806C8093040158
:1034600080910501887F836080930501809106012A
:10347000806C8093060180910701887F8360809330
:10348000070180910801806C8093080180910901F7
:10349000887F83608093090180910A01806C80930A
:1034A0000A0180910B01887F836080930B010E9449
:1034B000B51D0E94C817109231011092340110926C
:1034C00036011092350110923A0110923901109292
:1034D0003B0110926801109295011092C201109266
:1034E000EF0110921C02F89410922701109228010B
:1034F0001092290110922A0178940E94BE1D109208
:1035000049020E94DF1BC155DF4FE881F981CF5A84
:10351000D0408081883E59F4F1018181823039F4B4
:10352000C1010E941517AA24A394811101C0A12CE6
:10353000F8EBFF1609F4D0CE04C0A12C02C058EB62
:10354000F52E6F2D8B2D0E944417CECEA12CCECE02
:10355000FC01E050FF4F2081206C20832181287FD7
:1035600023600BCF912C0CCF912C15CF912C1CCF1D
:103570008E2D86958695C655DF4F3881CA5AD04024
:103580008317B8F440E2E49EC0011124D3018619E8
:103590009709FC01EA0FFB1FE491ED93C654DF4F3E
:1035A000E881F981CA5BD040AE17BF0791F7A3014C
:1035B0000BC08E2D837041E050E04C0F5D1FF0E298
:1035C0008F9F400D511D11246E2D802F0E945B177F
:1035D00068E770E0CE018B559F4F0E94001723E0F3
:1035E000C755DF4F2883C95AD0403AEBE32EDFCED0
:1035F000C755DF4F3881C95AD040311121C0F894E6
:1036000040912701509128016091290170912A0170
:103610007894CF55DF4F88819981AA81BB81C15AA7
:10362000D04084179507A607B70768F481E090E0BB
:103630000C2C01C0880F0A94EAF78095182303C068
:10364000992009F4A8C0F601EE0FFF1FE050FF4FCC
:10365000818187708183112309F4C3CE212F30E04B
:103660000F5F063008F000E0C901002E02C09595FA
:1036700087950A94E2F780FFF3CF33E0C755DF4F19
:103680003883C95AD04083E50E94911C802F0E9444
:10369000E41C8823E1F08BE00E94CA1CCB54DF4F6E
:1036A0008881C55BD0400E94CA1CCA54DF4F888104
:1036B000C65BD0400E94CA1CC954DF4F8881C75BDB
:1036C000D0400E94CA1C80EB97E10E94861CE02F2C
:1036D000F0E0EE0FFF1FE050FF4F8181886F818384
:1036E000C555DF4F4881CB5AD040842F90E0002E43
:1036F00002C0959587950A94E2F780FD03C062E3C6
:1037000070E002C068E770E0CE018B559F4F0E94C9
:103710000017C755DF4F5881C95AD0405150C7557F
:10372000DF4F5883C95AD0408AEBE82E5ACE82E444
:103730000E94911C0E94C81780910001817C8E61BB
:103740008093000180910201817C8E61809302014F
:1037500080910401817C8E61809304018091060137
:10376000817C8E618093060180910801817C8E614D
:103770008093080180910A01817C8E6180930A0107
:103780000E94B51D10923101809131018823E1F32F
:103790000E94771D8ECE111176CF23CEC755DF4FF5
:1037A0004881C95AD040442309F429CF4CCF80E046
:1037B0000E94F3170E94771D81E00E94F317F8948E
:0E37C000D4E0DEBFDFEFDDBF78940C94000094
:103800000C94321C0C94001C0C94001C0C94001C96
:103810000C94D0170C94591D0C94281D0C94361E32
:103820000C94B51D0C94DA1B0C94BE1D0C94291D30
:103830000C94651E0C945A1D0C94001C0C94001CD6
:103840000C94A21EFFFEFDFBFAF8F5F2EEEAE6E0AC
:10385000DAD3CCC3BAB0A5998C7E6F5F4E3B2813E8
:103860000D090301112422E0A0E0B1E001C01D9286
:10387000AE35B207E1F7E0ECF0E080818260808352
:10388000E1ECF0E08081886080836A9A509AE8E6F3
:10389000F0E08081846080838EE680937C00EAE79C
:1038A000F0E0808184608083808182608083808179
:1038B0008E7F8083269A689A279A699A549A529A98
:1038C0005E9A5D9A569A559A81E080936E0082E0E6
:1038D0008093700084B18F6384B987B1806C87B99D
:1038E0000E949F1C5F9A85B7982F916095BF826058
:1038F00085BFE1E6F0E080E8808310820E94BE1D73
:103900000E9496170E94771D0E94DF1B0AB400FCDC
:10391000FDCF90938900809388008AB581608ABD2D
:1039200008959091C00095FFFCCF8093C600089544
:103930002E9870982F9871985C985A9808958FEFE8
:1039400087BD88BD16BC95B5906895BD95B590644A
:1039500095BD93EA94BD93E29093B00090E8909364
:10396000B3008093B4001092B200E1EBF0E08081EC
:103970008064808383B5806883BD83B5826083BDA6
:1039800083B5816083BD82E085BD808383B58F77F9
:1039900083BD08950F931F93CF93DF93082FC8E043
:1039A000D0E011E0812F802319F08CE096E002C076
:1039B0008EED9EE00E94861C110F219799F7DF91F2
:1039C000CF911F910F9108954DE2849FF001112432
:1039D000E55CFE4F94A5911139C021E030E0A901CA
:1039E00002C0440F551F8A95E2F7CA012091810059
:1039F0002111FCCF98E190938100109280001092E9
:103A000085001092840021E030E0309389002093FB
:103A1000880093E0909380002CE036E0309389009A
:103A200020938800B19A90916F00926090936F00FC
:103A300080938A008AB581608ABD89E18093810084
:103A400080EB97E10E94861C81E0089580E0089554
:103A500018951F920F920FB60F9211242F933F9338
:103A60008F939F9390918A0037B186B1892327B1B4
:103A7000292B27B993B92AE12A95F1F700C093B908
:103A800086B99AE19A95F1F700C037B986B90AB4B8
:103A900000FC03C01092810003C08AB58E7F8ABDEE
:103AA0009F918F913F912F910F900FBE0F901F907C
:103AB0001895189590E8899FF0011124F89483E0F7
:103AC00080935700E895789407B600FCFDCFF894F2
:103AD00085E080935700E895789407B600FCFDCF09
:103AE000F89481E180935700E895789408950F93B6
:103AF0001F93CF93DF9310E020E037E101E080E0F7
:103B000090E0E901C80FD91F8038910569F0FE01E6
:103B100045915491F894FC010A0100935700E895EF
:103B2000112478940296EDCF812F0E945A1D1F5FB9
:103B30001E3211F09E01E3CFDF91CF911F910F91C3
:103B40000895E0E0F0E091E0F894DB012D913D91E3
:103B5000BD01090190935700E8951124789432969D
:103B6000E038F10589F70C945A1D81E080930C012F
:103B700080910C018111FCCF0C949617E7E2F1E0E3
:103B800080819181A281B3818054984DA64FBF4F0F
:103B900085839683A783B0870895EF92FF920F9352
:103BA0001F93CF93DF93F82ECCE1D2E010E200E038
:103BB000EE24E3949BA58F2D8123E1F18CA5943015
:103BC000D0F48823A1F1923010F490E801C090E085
:103BD000282F2695922B80FF29C08981883248F4AE
:103BE0008981FE01E80FF11D928389818F5F8983AE
:103BF0001BC0198213C09730D0F4803889F49981A2
:103C00009923A9F0E8828A818B3041F4898184303C
:103C100029F4CE010E941517811101E080E007C050
:103C20009881911104C0198280E801C0892F8CA766
:103C30001BA606C0983018F49F5F9BA701C01CA666
:103C4000AD97169581E0CE30D80709F0B3CF0023A9
:103C500031F080914902811102C00E94D71BDF918F
:103C6000CF911F910F91FF90EF9008951F920F92A7
:103C70000FB60F9211242F933F934F935F936F933F
:103C80007F938F939F93AF93BF93EF93FF9386B1EF
:103C9000809586B987B99AE19A95F1F700C017B86F
:103CA00086B978940E94CD1DFF91EF91BF91AF919D
:103CB0009F918F917F916F915F914F913F912F9144
:103CC0000F900FBE0F901F90189515BC0E94981C66
:103CD0001092B10014BC1092B0006B982FEF80E7E7
:103CE00092E0215080409040E1F700C000004F9BDF
:103CF000FECF2FEF80E792E0215080409040E1F727
:103D000000C0000080916D00806880936D0085E0A8
:103D100083BF889580916D008F7780936D000E949E
:103D20009F1C1092310110923401109236011092B2
:103D3000350110923A01109239010E94BE1D109275
:103D4000330108951F920F920FB60F9211241F9303
:103D50002F933F934F935F936F937F938F939F9393
:103D6000AF93BF93CF93DF93EF93FF9316B110956B
:103D700016B917B98AE18A95F1F700C017B816B9D4
:103D800078948091260190912501C92FD0E082304E
:103D900009F442C028F4882351F08130D1F063C087
:103DA000833009F446C0843009F452C05CC00E94DC
:103DB000981CCC0FDD1FCC0FDD1FC050DF4F8F854F
:103DC0008F3F29F083E28093B000539A6B9A81E091
:103DD0004AC06B98923081F030F4992359F09130B9
:103DE00081F4709A0EC0943059F040F0953049F447
:103DF0005A9A07C02E9A05C02F9A03C0719A01C023
:103E00005C9ACC0FDD1FCC0FDD1FC050DF4F8F85BC
:103E10008093B40082E027C08FEF8093B400CC0F72
:103E2000DD1FCC0FDD1FC050DF4F8D8587BD83E0C8
:103E30001AC053988093B0008FEF87BDCC0FDD1F61
:103E4000CC0FDD1FC050DF4F8E8588BD84E00BC0D6
:103E50008FEF88BD9F5F963019F410920C0190E0AF
:103E60009093250180E080932601812F0E94CD1D33
:103E7000C0912B0180E28C0F8D3708F4ABC080918C
:103E8000270190912801A0912901B0912A01019662
:103E9000A11DB11D8093270190932801A0932901B2
:103EA000B0932A0140912C0150912D0160912E0177
:103EB00070912F01481759076A077B0710F40E9479
:103EC000651E8091310169B1562F5095551F5527B8
:103ED000551F409134012091350130913601909168
:103EE0003001591349C04111415067FD2FC02115C0
:103EF000310529F02150310911F4109237016091F8
:103F0000390170913A016F5F7F4F70933A0160936E
:103F1000390169359BE1790730F0806810923A01E8
:103F20001092390149C0613797E1790710F0806438
:103F300043C0613D774008F43FC090913801911132
:103F40003BC0826091E09093380136C02115310565
:103F500099F12150310981F590913701913011F497
:103F6000886007C0923011F4806103C08062909332
:103F700032011092370120C041111DC090913701CC
:103F800067FD0BC081609F3F09F09F5F10923A016F
:103F9000109239012AE431E007C08460211531050F
:103FA00009F490E01092380190933701509330015A
:103FB00044E191E002C044E190E0809331014093FC
:103FC0003401309336012093350191110E94BE1DBA
:103FD00083EA8C0F80932B01FF91EF91DF91CF91BA
:103FE000BF91AF919F918F917F916F915F914F9111
:103FF0003F912F911F910F900FBE0F901F9018951A
:0400000300003800C1
:00000001FF
