:103800000C94321C0C94001C0C94001C0C94001C96
:103810000C94841F0C94851D0C945D1D0C94861DC6
:103820000C94E21F0C94001C0C94001C0C945E1D64
:103830000C94001C0C94001C0C94001C0C94001C98
:103840000C94B51DFFFEFDFBFAF8F5F2EEEAE6E09A
:10385000DAD3CCC3BAB0A5998C7E6F5F4E3B2813E8
:103860000D0903011124CFEFCDBFD4E0DEBF22E06C
:10387000A0E0B1E001C01D92A735B207E1F783B720
:10388000817F846083BF83B7816083BFE8E6F0E017
:103890008081846080838EE680937C00EAE7F0E09C
:1038A00080818B7F808380818D7F80838081816018
:1038B0008083269A689A279A699A549A529A5E9AAD
:1038C0005D9A569A559A81E080936E0082E08093CB
:1038D000700084B18F6384B987B1806C87B90E940E
:1038E0009F1C5F9A85B7982F916095BF826085BFB6
:1038F000E1E6F0E080E88083108280E197E2A0E0DA
:10390000B0E080932C0190932D01A0932E01B093F1
:103910002F010E942A1D78940C94000080E090E012
:10392000B09BFECF9093890080938800B09A089551
:103930002E9870982F9871985C985A9808958FEFE8
:1039400087BD88BD16BC95B5906895BD95B590644A
:1039500095BD93EA94BD93E29093B00090E8909364
:10396000B3008093B4001092B200E1EBF0E08081EC
:103970008064808383B5806883BD83B5826083BDA6
:1039800083B5816083BD82E085BD808383B58F77F9
:1039900083BD08950F931F93CF93DF93082FC8E043
:1039A000D0E011E0812F802319F08CE096E002C076
:1039B0008EED9EE00E94901C110F219799F7DF91E8
:1039C000CF911F910F910895E7E1F2E030E241E0DD
:1039D0002081932F982381F191812430C8F4992379
:1039E00041F1223010F420E801C020E0592F569513
:1039F000252B90FF1DC092A5983240F4DF01A90F3E
:103A0000B11D12962C939F5F92A710C012A608C0FA
:103A1000273078F4903831F422A5222351F043A7BF
:103A200090E007C023A5211104C012A690E801C0B0
:103A3000922F9183108206C0283018F42F5F2083C4
:103A400001C01182BC97369591E0EF30F90709F07B
:103A5000BFCF0895CF93DF93C0E0D1E0DE01000037
:103A6000EC912E2F229526952695237011968C91F8
:103A70001197982F9770990F990F922B869586958D
:103A80008695E695EF71F0E0EC5BF74CE491EC87FE
:103A9000E92FF0E0EC5BF74CE491ED87E82FF0E0E4
:103AA000EC5BF74CE491EE871296249681E0AC3003
:103AB000B807A9F6DF91CF91089518951F920F923C
:103AC0000FB60F9211242F933F938F939F93909152
:103AD0008A0037B186B1892327B1292B27B993B939
:103AE0002AE12A95F1F700C093B986B99AE19A952F
:103AF000F1F700C037B986B99F918F913F912F910F
:103B00000F900FBE0F901F90189518951F920F924F
:103B10000FB60F9211242F933F934F935F936F93A0
:103B20007F938F939F93AF93BF93EF93FF9386B150
:103B3000809586B987B99AE19A95F1F700C017B8D0
:103B400086B978940E94E41CFF91EF91BF91AF91E8
:103B50009F918F917F916F915F914F913F912F91A5
:103B60000F900FBE0F901F9018951F920F920FB6D7
:103B70000F9211241F932F933F934F935F936F9353
:103B80007F938F939F93AF93BF93CF93DF93EF93E5
:103B9000FF9316B1109516B917B98AE18A95F1F716
:103BA00000C017B816B9789480912601909125012C
:103BB000C92FD0E0823009F442C028F4882351F0A4
:103BC0008130D1F063C0833009F446C0843009F4F9
:103BD00052C05CC00E94981CCC0FDD1FCC0FDD1FB3
:103BE000C050DF4F8E858F3F29F083E28093B00075
:103BF000539A6B9A81E04AC06B98923081F030F40E
:103C0000992359F0913081F4709A0EC0943059F094
:103C100040F0953049F45A9A07C02E9A05C02F9A61
:103C200003C0719A01C05C9ACC0FDD1FCC0FDD1F61
:103C3000C050DF4F8E858093B40082E027C08FEFA5
:103C40008093B400CC0FDD1FCC0FDD1FC45FDE4FAF
:103C5000888187BD83E01AC053988093B0008FEFAE
:103C600087BDCC0FDD1FCC0FDD1FC050DF4F8D8512
:103C700088BD84E00BC08FEF88BD9F5F963019F43C
:103C80001092240190E09093250180E0809326011A
:103C9000812F0E94E41CC0912B0180E28C0F8D3794
:103CA00008F4ECC08091270190912801A09129018E
:103CB000B0912A010196A11DB11D80932701909317
:103CC0002801A0932901B0932A0140912701509126
:103CD00028016091290170912A0180912C01909115
:103CE0002D01A0912E01B0912F0184179507A607F1
:103CF000B70760F515BC0E94981C1092B10014BC67
:103D00001092B0006B9880916D00806880936D0078
:103D1000889580916D008F7780936D000E949F1C25
:103D20008091270190912801A0912901B0912A0149
:103D3000805F984DAF4FBF4F80932C0190932D0122
:103D4000A0932E01B0932F01109233018091310185
:103D500069B1562F5095551F5527551F9091300129
:103D6000409134012091350130913601591345C0FD
:103D70004111415067FD2BC02115310529F021501B
:103D8000310911F4109237016091390170913A01B3
:103D90006F5F7F4F70933A016093390169359BE102
:103DA000790710F0806849C0613797E1790710F012
:103DB000806443C0613D774008F43FC09091380172
:103DC00091113BC0826091E09093380136C021157B
:103DD000310599F12150310981F5909137019130E8
:103DE00011F4886007C0923011F4806103C08062D2
:103DF000909332011092370120C041111DC0909163
:103E0000370167FD0BC081609F3F09F09F5F1092F3
:103E10003A01109239012AE431E007C0846021158B
:103E2000310509F490E010923801909337015093D6
:103E3000300144E191E002C044E190E0809331011F
:103E40004093340130933601209335019923A1F03A
:103E50008091270190912801A0912901B0912A0118
:103E6000805F984DAF4FBF4F80932C0190932D01F1
:103E7000A0932E01B0932F0183EA8C0F80932B0126
:103E8000FF91EF91DF91CF91BF91AF919F918F9172
:103E90007F916F915F914F913F912F911F910F9063
:103EA0000FBE0F901F90189520E8829FC00111242B
:103EB000DB01E0E0F0E021E0F8944D915D910A0132
:103EC00020935700E895112478943296E038F10554
:103ED00099F7F89423E0FC0120935700E895789433
:103EE00007B600FCFDCFF89425E0FC0120935700B5
:103EF000E895789407B600FCFDCFF89481E18093B3
:103F00005700E89578940895FF920F931F93CF93ED
:103F1000DF93F62E072F142F9CE2899FF0011124C6
:103F2000E55CFE4F9181911146C021E030E0A9018E
:103F300001C0440F8A95EAF788E1809381001092CE
:103F400080001092850010928400309389002093A5
:103F5000880083E0809380008CE096E09093890055
:103F600080938800B19AB09A80916F0082608093AC
:103F70006F0040938A0089E18093810080EB97E194
:103F80000E94901C87E30E94CA1CCF2DD02F1123C2
:103F900029F089910E94CA1C1150F9CF80EB97E15A
:103FA0000E94901CB09BFECFB09AB09BFECF1092A7
:103FB000810081E001C080E0DF91CF911F910F91DE
:103FC000FF90089581E08093240180912401811164
:063FD000FCCF0C942A1D39
:0400000300003800C1
:00000001FF
