:102C00000AB400FCFDCF90938900809388008AB5B8
:102C100081608ABD08959B01F894409131015091E3
:102C2000320160913301709134017894420F531F47
:102C3000611D711DFC01408351836283738308957C
:102C4000FC012181329690E0215018F08191980F7B
:102C5000FBCF81E0923D09F080E008950F931F9330
:102C6000CF93DF9300E010E0C0E0D0E0F801849162
:102C7000C80FD11D802F0E943D1C8C2F0E943D1C2F
:102C80008D2F0E943D1C0F5F1F4F0115F6E11F079E
:102C900069F7CE01DF91CF911F910F910895CF93E6
:102CA000C62F0E94901C882379F08DE50E94761C27
:102CB0008C2F0E94761C85E78C1B0E94761C80EB73
:102CC00097E1CF910C940016CF910895CF92DF92A7
:102CD000FF920F931F93CF93DF93062FF42E152FA0
:102CE0000E94901C882329F18BED0E94761CCF2D29
:102CF000D12F6E0180E2C80ED11C1BEDF9908F2DF3
:102D00000E94761C1F0DCC16DD06C1F7802F0E9495
:102D1000761C82ED801B811B0E94761C80EB97E164
:102D2000DF91CF911F910F91FF90DF90CF900C9486
:102D30000016DF91CF911F910F91FF90DF90CF9000
:102D40000895CF93DF93C0E0D1E0DE01EC912E2F08
:102D5000229526952695237011968C911197982F80
:102D60009770990F990F922B869586958695E69583
:102D7000EF71F0E0EC5BF74CE491ED87E92FF0E0C8
:102D8000EC5BF74CE491EE87E82FF0E0EC5BF74C5E
:102D9000E491EF871296249681E0AC30B807B1F643
:102DA000DF91CF910895EEE3F1E011821482168253
:102DB000158212861186089581E00895FF920F937F
:102DC0001F93CF93DF93F62E072F142F0E94901C92
:102DD000882389F087E30E94761CCF2DD02F112302
:102DE00029F089910E94761C1150F9CF80EB97E170
:102DF0000E94001681E0DF91CF911F910F91FF900B
:102E00000895CF93DF93CDB7DEB7CC5BD1090FB672
:102E1000F894DEBF0FBECDBFC355DF4F8883CD5AB8
:102E2000D0400E94F81D81E08093730280E090E022
:102E30000E94731DC355DF4F2881CD5AD0402223F5
:102E4000B9F00E942E162C0168E873E1CE018F556F
:102E50009F4F0E940B163CE2C655DF4F3883CA5A7B
:102E6000D0401FE300E080EBF82E96E0B92E45C07D
:102E70001DE4812E11E0912EE12CF12C11E3BE2CEA
:102E80001E9D60011F9DD00C1124F601E35BFE4FD7
:102E90008081882309F4ACC082818B3009F0A8C0FE
:102EA0008181843009F0A4C0C4010E9420168823C7
:102EB00009F49EC0F601E15BFE4F4180528001E0C3
:102EC0000E0D063019F400E0B5E0BB2E81E090E075
:102ED0000B2C01C0880F0A94EAF7182F10951F7366
:102EE00060E070E0CE018F559F4F0E940B16C655D3
:102EF000DF4F1882CA5AD040F12CCB55DF4F1882D1
:102F000019821A821B82C55AD04010923F01CA54BE
:102F1000DF4F4882C65BD040C954DF4F5882C75B41
:102F2000D04087EC84198519C854DF4F8883C85B6B
:102F3000D04043E0C755DF4F4883C95AD040C455FD
:102F4000DF4F1882CC5AD04072EBE72E8B2D90E0E9
:102F500051E3589F9001599F300D1124F901E35B13
:102F6000FE4F1F01AF014E5F5F4FC055DF4F5983CA
:102F70004883C05BD040F901E15BFE4FCE54DF4F88
:102F8000F983E883C25BD0409C01220F331FCC54ED
:102F9000DF4F39832883C45BD0403196C754DF4F5D
:102FA000F983E883C95BD04020503F4FC255DF4FC3
:102FB00039832883CE5AD0403E0131E8630E711C1C
:102FC000A301405E5F4FC554DF4F59834883CB5BFD
:102FD000D040C355DF4F5881CD5AD040552319F00A
:102FE000112309F412C180913F0180FF0DC00DC172
:102FF0009FEFE91AF90AE1E38E0E911CF6E0EF1655
:10300000F10409F03CCF62CFC355DF4F3881CD5A70
:10301000D04031115EC1F1018081882309F459C18A
:10302000C055DF4FE881F981C05BD04080818B3D86
:1030300009F02CC1F1018181833209F027C1C1015E
:103040000E942016882309F421C1CE54DF4FE88165
:10305000F981C25BD04081A18F112CC1CC54DF4FCC
:10306000E881F981C45BD040E050FF4F81818770D7
:103070009F2D9295990F907E892B81838F2D837040
:10308000A1E0B0E0AC0FBD1FF0E28F9FA00DB11D1D
:10309000112490E2C754DF4FE881F981C95BD04029
:1030A00001900D929A95E1F78330A9F4BE016F5F0C
:1030B0007F4FC655DF4F8881CA5AD0400E94561DA7
:1030C000C655DF4F2881CA5AD0402F5FC655DF4F03
:1030D0002883CA5AD040F39430EBF312F1C0C255A2
:1030E000DF4FE881F981CE5AD0408081806C8083A7
:1030F00083E08183A12C1111E5C061EB8B2D0E942F
:103100004F1660EBF62EF1011082C02ED12CF1E3A8
:10311000FC9D4001FD9D900C1124F401E35BFE4FEA
:103120008081882309F4E5C082818D3509F0DFC0F4
:103130008181833009F0DBC0CF010E9420168823F3
:1031400009F4D5C021E030E0002E01C0220F0A941E
:10315000EAF7C455DF4F4881CC5AD040422BC455C2
:10316000DF4F4883CC5AD040F401E15BFE4FE18051
:10317000C601880F991F5FEA5E1508F0B6C0E1EB43
:10318000EE12A9C020951223FC01E050FF4F2081D0
:10319000206C208321812760218399249394FC0152
:1031A000E050FF4F818187709E2D9295990F907E00
:1031B000892B818321E32C9DF0012D9DF00D11249D
:1031C000E35BFE4F1082EF1408F495C0F894409131
:1031D0003101509132016091330170913401789442
:1031E000CB55DF4F88819981AA81BB81C55AD040D8
:1031F00084179507A607B70708F4BDC09110BEC194
:103200000E94A116AA2009F4E4CE1092730220EBCA
:10321000F21250C10E942E164816590609F04AC1F2
:1032200003E010E0812F0E94901C882351F088EE6B
:103230000E94761C8AEE0E94761C80EB97E10E9429
:1032400000161F5F163071F7015059F780E090E0CB
:103250000E94731D0E94D31610924D0110927E01A0
:103260001092AF011092E0011092110210924202EE
:10327000F8941092310110923201109233011092A1
:10328000340178940E94F81D0E941A1BC055DF4F2C
:10329000E881F981C05BD0408081883E59F4F1011A
:1032A0008181823039F4C1010E942016AA24A3949E
:1032B000811101C0A12CF0EBFF1609F41CCF04C052
:1032C000A12C02C050EBF52E6F2D8B2D0E944F16B6
:1032D0001ACFA12C1ACFFC01E050FF4F2081206CA7
:1032E00020832181287F236057CF912C58CF912CA8
:1032F00061CF912C68CF8E2D86958695C655DF4F70
:103300003881CA5AD0408317B8F440E2E49EC00125
:103310001124D30186199709FC01EA0FFB1FE491E0
:10332000ED93C554DF4FE881F981CB5BD040EA17BC
:10333000FB0791F7A3010BC08E2D837041E050E095
:103340004C0F5D1FF0E28F9F400D511D11246E2D1B
:10335000802F0E94661668E770E0CE018B559F4F64
:103360000E940B1623E0C755DF4F2883C95AD0406F
:1033700032EBE32E2BCFC755DF4F4881C95AD040DF
:10338000411121C0F8944091310150913201609176
:103390003301709134017894CF55DF4F8881998142
:1033A000AA81BB81C15AD04084179507A607B707E9
:1033B00068F481E090E00C2C01C0880F0A94EAF7D1
:1033C0008095182303C0992009F4D5C0F601EE0FAB
:1033D000FF1FE050FF4F818187708183112309F423
:1033E0000FCF212F30E00F5F063008F000E0C90159
:1033F000002E02C0959587950A94E2F780FFF3CFDF
:1034000033E0C755DF4F3883C95AD04083E50E9467
:103410003D1C802F0E94901C8823E1F08BE00E94CD
:10342000761CCA54DF4F8881C65BD0400E94761C50
:10343000C954DF4F8881C75BD0400E94761CC854B6
:10344000DF4F8881C85BD0400E94761C80EB97E1FB
:103450000E940016E02FF0E0EE0FFF1FE050FF4F3C
:103460008181886F8183C455DF4F4881CC5AD04019
:10347000842F90E0002E02C0959587950A94E2F77C
:1034800080FD03C062E370E002C068E770E0CE0137
:103490008B559F4F0E940B16C755DF4F5881C95A55
:1034A000D0405150C755DF4F5883C95AD04082EBA6
:1034B000E82EA6CE0E94D31680E090913F0190FDA9
:1034C00057C0F894009131011091320120913301DD
:1034D000309134017894CF57DF4F488159816A8108
:1034E0007B81C158D040401751076207730788F5A8
:1034F00011E0180F823099F028F4882381F0813090
:10350000E1F028C08330C9F0843021F564EF71E028
:10351000CE018F579F4F0E940B1610E01BC0C55560
:10352000DF4F8881CB5AD0408E638F73C555DF4FF4
:103530008883CB5AD04090E002C080E090E00E94A7
:10354000731D64E670E0CE018F579F4F0E940B16EB
:1035500001C0182F10924D0110927E011092AF0100
:103560001092E0011092110210924202812FA5CF19
:103570000E942C1D6BCE111149CF42CEC755DF4F93
:103580005881C95AD040552309F4FCCE1FCF80E0A2
:103590000E9401170E942C1D81E00E940117E0EC9F
:1035A000F0E0808182608083E1ECF0E080818860DF
:1035B00080836A9A509A8EE680937C0085B7982F14
:1035C000916095BF826085BFC0E8C0BF84E88093EA
:1035D0006400E8E6F0E08081846080835F9A269A48
:1035E000689A279A699A549A529A5E9A5D9A569A5C
:1035F000559A81E080936E0082E0809370000E9473
:103600004B1C86EC80937A000E94071E84B18F6366
:1036100084B987B1806C87B9F894E1E6F0E0C083A3
:10362000108278940E94F81D0E94A1160E942C1D01
:103630000E941A1BF894D4E0DEBFDFEFDDBF789460
:043640000C940000E6
:103800000C94321C0C94001C0C94001C0C94001C96
:103810000C94DE160C94FF1C0C94001D0C94271EB7
:103820000C946A1D0C94CA1A0C94F81D0C94D41CA8
:103830000C941F1E0C940F1D0C94DC160C94001C91
:103840000C94271EFFFEFDFBFAF8F5F2EEEAE6E027
:10385000DAD3CCC3BAB0A5998C7E6F5F4E3B2813E8
:103860000D090301112422E0A0E0B1E001C01D9286
:10387000A837B207E1F70E94CF1A9091C00095FFD8
:10388000FCCF8093C60008952E9870982F98719859
:103890005C985A9808958FEF87BD88BD16BC95B582
:1038A000906895BD95B5906495BD93EA94BD93E2FB
:1038B0009093B00090E89093B3008093B40010927E
:1038C000B200E1EBF0E080818064808383B58068A2
:1038D00083BD83B5826083BD83B5816083BD82E093
:1038E00085BD808383B58F7783BD08950F931F9324
:1038F000CF93DF93082FC8E0D0E011E0812F802321
:1039000019F08CE096E002C08EED9EE00E94001659
:10391000110F219799F7DF91CF911F910F91089582
:1039200041E3849FF0011124E35BFE4F94A59111C4
:1039300039C021E030E0A90102C0440F551F8A952B
:10394000E2F7CA01209181002111FCCF98E1909308
:10395000810010928000109285001092840021E076
:1039600030E0309389002093880093E090938000AA
:103970002CE036E03093890020938800B19A909132
:103980006F00926090936F0080938A008AB5816087
:103990008ABD89E18093810080EB97E10E94001647
:1039A00081E0089580E008951F920F920FB60F9264
:1039B00011242F938F939F9390918A0086B189232E
:1039C00097B993B92AE12A95F1F700C093B986B95E
:1039D00095E09A95F1F7000017B886B90AB400FC93
:1039E00003C01092810003C08AB58E7F8ABD9F916B
:1039F0008F912F910F900FBE0F901F9018951895D3
:103A00001F920F920FB60F9211248F9386B5809359
:103A100027018F910F900FBE0F901F90189590E87F
:103A2000899FF0011124F89483E080935700E89572
:103A3000789407B600FCFDCFF89485E0809357009A
:103A4000E895789407B600FCFDCFF89481E1809367
:103A50005700E895789408950F931F93CF93DF93C1
:103A600010E020E036E101E080E090E0E901C80FDD
:103A7000D91F8038910569F0FE0145915491F89461
:103A8000FC010A0100935700E895112478940296EE
:103A9000EDCF812F0E940F1D1F5F1C3211F09E0180
:103AA000E3CFDF91CF911F910F910895E0E0F0E017
:103AB00091E0F894DB012D913D91BD0109019093B6
:103AC0005700E895112478943296E038F10589F78B
:103AD0000C940F1D81E080930C0180910C018111E9
:103AE000FCCF0C94A116E0E0F1E08193919321E0EA
:103AF000EC30F207D1F70C946A1D0F931F93CF930C
:103B0000DF93F89490E89093610091E090936100C6
:103B1000789405E016EC811113C015BC0E94441C7A
:103B20001092B10014BC1092B0006B982FEF80E798
:103B300092E0215080409040E1F700C0000020C09A
:103B4000D3E0CE63CF738C2F90E00E94731D2FEFD4
:103B500080E792E0215080409040E1F700C00000F3
:103B600080E090E00E94731D2FEF80E792E02150EB
:103B700080409040E1F700C00000D15011F7CDCF58
:103B80004F9BFECF2FEF80E792E021508040904086
:103B9000E1F700C0000080916D00806880936D00A7
:103BA00003BF889580916D008F7780936D000E9490
:103BB0004B1C10937A00000080917A0086FDFCCFA8
:103BC0009091790010937A0081E0953708F480E0B5
:103BD000953708F0A0CFF89480E8809361001092A8
:103BE00061007894DF91CF911F910F910C94D316BF
:103BF000E1E3F1E080819181A281B381805E9D4EFD
:103C0000A54FBF4F85839683A783B0870895000093
:103C100080917A0086FDFCCF8091790096EC90939C
:103C20007A00853758F081E0809328010E947D1D3D
:103C30000E94F81D1092410110922801089580E021
:103C40000E947D1D0E94F81D1092410108951F924F
:103C50000F920FB60F921124EF92FF920F931F93C2
:103C60002F933F934F935F936F937F938F939F9384
:103C7000AF93BF93CF93DF93EF93FF9316B110955C
:103C800016B917B985E18A95F1F7000095E09A9584
:103C9000F1F7000017B816B978948091B20087FF49
:103CA000BBC0C091350180E28C0F8D3708F4B1C0E4
:103CB0008091310190913201A0913301B091340192
:103CC0000196A11DB11D8093310190933201A09303
:103CD0003301B09334014091360150913701609126
:103CE000380170913901481759076A077B0710F4AA
:103CF0000E941F1E80913F0169B1562F5095551F9C
:103D00005527551F90913E0140914201209143015A
:103D100030914401591349C04111415067FD2FC0F2
:103D20002115310529F02150310911F41092450176
:103D300060914701709148016F5F7F4F7093480118
:103D400060934701613797E1790730F080681092FE
:103D500048011092470149C0693B9BE0790710F088
:103D6000806443C0613B744008F43FC090914601B9
:103D700091113BC0826091E09093460136C02115BD
:103D8000310599F12150310981F59091450191302A
:103D900011F4886007C0923011F4806103C0806222
:103DA000909340011092450120C041111DC0909197
:103DB000450167FD0BC081609F3F09F09F5F109236
:103DC0004801109247012AE431E007C084602115C0
:103DD000310509F490E0109246019093450150930B
:103DE0003E0144E191E002C044E190E080933F0154
:103DF00040934201309344012093430191110E946A
:103E0000F81D80912801811102C00E94071E83EADB
:103E10008C0F8093350174C080912601909125010B
:103E2000C92FD0E0823009F442C028F4882351F031
:103E30008130D1F063C0833009F446C0843009F486
:103E400052C05CC00E94441CCC0FDD1FCC0FDD1F94
:103E5000C050DF4F8F858F3F29F083E28093B00001
:103E6000539A6B9A81E04AC06B98923081F030F49B
:103E7000992359F0913081F4709A0EC0943059F022
:103E800040F0953049F45A9A07C02E9A05C02F9AEF
:103E900003C0719A01C05C9ACC0FDD1FCC0FDD1FEF
:103EA000C050DF4F8F858093B40082E027C08FEF32
:103EB0008093B400CC0FDD1FCC0FDD1FC050DF4F4F
:103EC0008D8587BD83E01AC053988093B0008FEF33
:103ED00087BDCC0FDD1FCC0FDD1FC050DF4F8E859F
:103EE00088BD84E00BC08FEF88BD9F5F963019F4CA
:103EF00010920C0190E09093250180E080932601C0
:103F0000C2E4D2E000E2F12CEE24E3949BA5802FE2
:103F10008123F1F18CA59430D0F48823B1F1923053
:103F200010F490E801C090E0282F2695922B80FF96
:103F30002BC08981883248F48981FE01E80FF11D88
:103F4000928389818F5F89831DC0198215C0973044
:103F5000E0F4803899F499819923B9F0E8828A8154
:103F60008B3051F48981843039F4CE010E942016BF
:103F7000882311F0FF24F39480E007C09881911109
:103F800004C0198280E801C0892F8CA71BA606C037
:103F9000983018F49F5F9BA701C01CA6E197069577
:103FA00081E0CC31D80709F0B1CFFF2031F080910A
:103FB0007302811102C00E94C71AFF91EF91DF9135
:103FC000CF91BF91AF919F918F917F916F915F91B1
:103FD0004F913F912F911F910F91FF90EF900F9074
:083FE0000FBE0F901F90189511
:0400000300003800C1
:00000001FF
