:102E00000AB400FCFDCF90938900809388008AB5B6
:102E100081608ABD08959B01F894409131015091E1
:102E2000320160913301709134017894420F531F45
:102E3000611D711DFC01408351836283738308957A
:102E4000FC012181329690E0215018F08191980F79
:102E5000FBCF81E0923D09F080E00895CF93C62F2B
:102E60004ED5882359F08DE531D58C2F2FD585E7A8
:102E70008C1B2CD580EB97E1CF91C2CFCF910895D9
:102E8000CF92DF92FF920F931F93CF93DF93062F82
:102E9000F42E152F34D5882301F18BED17D5CF2DC6
:102EA000D12F6E0180E2C80ED11C1BEDF9908F2D41
:102EB0000DD51F0DCC16DD06C9F7802F07D582ED85
:102EC000801B811B03D580EB97E1DF91CF911F9190
:102ED0000F91FF90DF90CF9093CFDF91CF911F9113
:102EE0000F91FF90DF90CF900895CF93DF93C0E0D4
:102EF000D1E0DE01EC912E2F2295269526952370A8
:102F000011968C911197982F9770990F990F922B7A
:102F1000869586958695E695EF71F0E0EC5BF74C2B
:102F2000E491ED87E92FF0E0EC5BF74CE491EE875C
:102F3000E82FF0E0EC5BF74CE491EF8712962496D3
:102F400081E0AC30B807B1F6DF91CF910895E0E0B1
:102F5000F1E0119282E0E837F807D8F3809131016F
:102F600090913201A0913301B0913401805E9D4E69
:102F7000A54FBF4F8093360190933701A09338013E
:102F8000B0933901B2CFEDE4F1E0108211AA1092B2
:102F9000AF011092E00110921102109242020895C6
:102FA000F894EEE3F1E01182148216821582128603
:102FB00011867894089582E00895FF920F931F93ED
:102FC000CF93DF93F62E072F142F99D4882371F017
:102FD00087E37CD4CF2DD02F112321F0899176D493
:102FE0001150FACF80EB97E10BDF81E0DF91CF91B9
:102FF0001F910F91FF900895182FC12FDE63DF738B
:103000008D2F90E064D52FEF80E792E02150804033
:103010009040E1F700C00000B6DF80E090E057D5B7
:103020002FEF80E792E0215080409040E1F700C010
:103030000000A9DFC15021F080913F0180FFDECF69
:10304000C6E0C15021F080913F0180FF0CC080910B
:103050003F0180FFD2CFF89480E18093600088E048
:1030600080936000FFCF80E090E031D52FEF80E7C4
:1030700092E0215080409040E1F700C0000083DFE3
:1030800080E090E024D52FEF80E792E0215080404F
:103090009040E1F700C0000076DFD3CF14BE0FB63A
:1030A000F894A895809160008861809360001092E8
:1030B00060000FBEC0E8C0936100D1E0D093610012
:1030C0008EE680937C0043DF85B7982F916095BF93
:1030D000826085BFC0BF84E88093640080916800EF
:1030E0008460809368005F9A729A589A599A269AD7
:1030F000689A279A699A549A529A5E9A5D9A569A51
:10310000559AD0936E0012E010937000B4D3D09310
:10311000280184B18F6384B987B1806C87B97894B2
:1031200086EC80937A00DCD4F894C093610010920E
:1031300061007894109228011093C00088E0809379
:10314000C1008091C00085FFFCCF80E38093C60062
:103150007AD418D4CF93DF93CDB7DEB7CB5BD10948
:103160000FB6F894DEBF0FBECDBFC455DF4F8883C6
:10317000CC5AD040E0D481E08093730280E090E0AC
:10318000A6D4C455DF4F2881CC5AD0402223F9F071
:10319000412C512CE0E0F0E08491480E511C319616
:1031A000E11537E1F307C1F768E873E1CE018F5508
:1031B0009F4F31DE4EE2C655DF4F4883CA5AD0409A
:1031C0001FE300E088EBF82E96E0B92E43C01DE423
:1031D000812E11E0912EE12CF12C11E3BE2C1E9DCD
:1031E00060011F9DD00C1124F601E35BFE4F80812E
:1031F000882309F4AAC082818B3009F0A6C081819E
:10320000843009F0A2C0C4011BDE882309F49DC0EC
:10321000F601E15BFE4F4180528001E00E0D063069
:1032200019F400E0B5E0BB2E81E090E00B2C01C06A
:10323000880F0A94EAF7182F10951F7360E070E06A
:10324000CE018F559F4FE7DDC655DF4F1882CA5A12
:10325000D040F12CCB55DF4F188219821A821B8285
:10326000C55AD0409DDECB54DF4F4882C55BD0406D
:10327000CA54DF4F5882C65BD04087EC282E2418F2
:103280002518C954DF4F2882C75BD04053E0C7558B
:10329000DF4F5883C95AD040C555DF4F1882CB5AEB
:1032A000D0407AEBE72E8B2D90E0E1E3E89F900190
:1032B000E99F300D1124A901435B5E4F1A01FA0109
:1032C0003296C155DF4FF983E883CF5AD040A90128
:1032D000415B5E4FCF54DF4F59834883C15BD04081
:1032E000FC01EE0FFF1FCD54DF4FF983E883C35B72
:1032F000D0404F5F5F4FC854DF4F59834883C85B4E
:10330000D040E050FF4FC355DF4FF983E883CD5ADB
:10331000D0403E01F1E86F0E711C9301205E3F4FDB
:10332000C654DF4F39832883CA5BD040C455DF4F72
:103330003881CC5AD040332319F0112309F408C244
:1033400080913F0180FF0DC003C23FEFE31AF30AF3
:1033500041E3840E911C56E0E516F10409F03ECFDE
:1033600063CFC455DF4F8881CC5AD040811198C0BB
:10337000F1018081882309F493C0C155DF4FE881B2
:10338000F981CF5AD04080818B3D09F060C0F101B6
:103390008181833209F05BC0C10152DD882309F4C9
:1033A00056C0CF54DF4FE881F981C15BD04081A185
:1033B0008F1160C0CD54DF4FE881F981C35BD040ED
:1033C000E050FF4F818187709F2D9295990F907EDD
:1033D000892B81838F2D8370A1E0B0E0AC0FBD1FDE
:1033E000F0E28F9FA00DB11D112490E2C854DF4F71
:1033F000E881F981C85BD04001900D929A95E1F780
:103400008330A1F4BE016F5F7F4FC655DF4F8881C7
:10341000CA5AD04041D3C655DF4F2881CA5AD0403E
:103420002F5FC655DF4F2883CA5AD040F39438EB3C
:10343000F3122CC0C355DF4FE881F981CD5AD0403B
:103440008081806C808383E08183A12C17C0C1556B
:10345000DF4FE881F981CF5AD0408081883E51F416
:10346000F1018181823031F4C101EADCAA24A39404
:10347000811101C0A12CF8EBFF120CC0111108C082
:1034800069EB8B2DEBDC68EBF62E07C0A12C02C09C
:1034900058EBF52E6F2D8B2DE1DCF101108201C070
:1034A000A12CC02ED12CF1E3FC9D4001FD9D900C80
:1034B0001124F401E35BFE4F8081882309F45CC092
:1034C00082818D3509F04DC08181833009F049C07A
:1034D000CF01B6DC882309F444C021E030E0002E9F
:1034E00001C0220F0A94EAF7C555DF4F4881CB5A35
:1034F000D040422BC555DF4F4883CB5AD040F40112
:10350000E15BFE4FE180C601880F991F57EB5E1506
:10351000D8F4E9EBEE120BC020951223FC01E05029
:10352000FF4F2081206C20832181276009C0FC018E
:10353000E050FF4F2081206C20832181287F236071
:1035400021839924939401C0912CFC01E050FF4FFA
:10355000818187709E2D9295990F907E892B818312
:1035600001C0912C21E32C9DF0012D9DF00D112423
:10357000E35BFE4F108201C0912CEF1408F03DC0B8
:103580008E2D86958695C655DF4F3881CA5AD04014
:103590008317B8F440E2E49EC0011124D3018619D8
:1035A0009709FC01EA0FFB1FE491ED93C654DF4F2E
:1035B000E881F981CA5BD040EA17FB0791F7A301C4
:1035C0000BC08E2D837041E050E04C0F5D1FF0E288
:1035D0008F9F400D511D11246E2D802F51DC68E707
:1035E00070E0CE018B559F4F16DC23E0C755DF4FAF
:1035F0002883C95AD0403AEBE32EF8944091310128
:103600005091320160913301709134017894CB551F
:10361000DF4F88819981AA81BB81C55AD040841728
:103620009507A607B70718F09110D3C08DC0C755EE
:10363000DF4F9881C95AD0409111C2C0F89440918F
:1036400031015091320160913301709134017894CD
:10365000CF55DF4F88819981AA81BB81C15AD04063
:1036600084179507A607B70748F481E090E00C2C73
:1036700001C0880F0A94EAF780951823F601EE0F2F
:10368000FF1FE050FF4F818187708183112309F470
:103690005BC0212F30E00F5F063009F400E0C90164
:1036A000002E02C0959587950A94E2F780FFF3CF2C
:1036B00033E0C755DF4F3883C95AD040802F1FD120
:1036C0008823B9F08BE002D1CB54DF4F8881C55BF2
:1036D000D040FCD0CA54DF4F8881C65BD040F6D0C2
:1036E000C954DF4F8881C75BD040F0D080EB97E1B1
:1036F00087DBE02FF0E0EE0FFF1FE050FF4F8181EE
:10370000886F8183C555DF4F4881CB5AD040842FC5
:1037100090E0002E02C0959587950A94E2F780FD0F
:1037200052C062E370E0CE018B559F4F74DBC755EA
:10373000DF4F5881C95AD0405150C755DF4F588389
:10374000C95AD0408AEBE82ED0DBAA2009F4EECD8E
:103750001092730225DC8091C00085FFFCCF82E3CC
:103760008093C60088EBF8120FC080E090E0E0E0A4
:10377000F0E02491820F911D3196E11527E1F207C7
:10378000C1F74816590649F08091C00085FFFCCF6B
:1037900083E38093C60083E02FDC03E010E0812FF9
:1037A000AED0882339F088EE91D08AEE8FD080EBAE
:1037B00097E126DB1F5F163091F7015079F7E2D0D1
:1037C000992021F05BCF68E770E0ADCF111176CF83
:1037D000BBCFC755DF4FE881C95AD040EE2309F46B
:1037E0002DCF4CCF80E0B6DC2ED181E0B3DC04DC01
:1038000031C00000FDCF0000FBCF0000F9CF000069
:10381000D4CB0000EBC00000EAC00000DFC1000014
:103820004EC10000E1CF000086C10000B4C000001E
:1038300093C10000EBC00000BECB0000D8CF000059
:10384000CDC10000FFFEFDFBFAF8F5F2EEEAE6E07E
:10385000DAD3CCC3BAB0A5998C7E6F5F4E3B2813E8
:103860000D09030111241ADC2E9870982F98719875
:103870005C985A9808958FEF87BD88BD16BC95B5A2
:10388000906895BD95B5906495BD93EA94BD93E21B
:103890009093B00090E89093B3008093B40010929E
:1038A000B200E1EBF0E080818064808383B58068C2
:1038B00083BD83B5826083BD83B5816083BD82E0B3
:1038C00085BD808383B58F7783BD08950F931F9344
:1038D000CF93DF93082FC8E0D0E011E0812F802341
:1038E00019F08CE096E002C08EED9EE089DA110FAF
:1038F0002197A1F7DF91CF911F910F91089541E397
:10390000849FF0011124E35BFE4F94A5911138C010
:1039100021E030E0A90102C0440F551F8A95E2F76B
:10392000CA01209181002111FCCF98E19093810080
:1039300010928000109285001092840021E030E007
:10394000309389002093880093E0909380002CE0CE
:1039500036E03093890020938800B19A90916F00EF
:10396000926090936F0080938A008AB581608ABDCF
:1039700089E18093810080EB97E142DA81E008954C
:1039800080E00895F894E3DA04E00EBF0FEF0DBF76
:1039900078940C9400001F920F920FB60F9211248E
:1039A0002F938F939F9390918A0086B1892397B923
:1039B00093B92AE12A95F1F700C093B986B995E049
:1039C0009A95F1F7000017B886B90AB400FC03C055
:1039D0001092810003C08AB58E7F8ABD9F918F911E
:1039E0002F910F900FBE0F901F90189518951F9252
:1039F0000F920FB60F9211248F9386B580932701F3
:103A00008F910F900FBE0F901F90189590E8899F8F
:103A1000F0011124F89483E080935700E89578949E
:103A200007B600FCFDCFF89485E080935700E89539
:103A3000789407B600FCFDCFF89481E1809357009D
:103A4000E895789408950F931F93CF93DF9310E038
:103A500020E037E101E080E090E0E901C80FD91FE4
:103A60008038910569F0FE0145915491F894FC016C
:103A70000A0100935700E895112478940296EDCF3F
:103A8000812FC4DF1F5F1E3211F09E01E4CFDF9152
:103A9000CF911F910F910895E0E0F0E091E0F8944C
:103AA000DB012D913D91BD01090190935700E895EF
:103AB000112478943296E038F10589F7A7CF81E098
:103AC00080930C0180910C018111FCCF0ECAE0E0C3
:103AD000F1E08193919321E0EC30F207D1F7EFCF41
:103AE000000080917A0086FDFCCF8091790096ECF1
:103AF00090937A008537F0F08091C00085FFFCCF6D
:103B00008CE48093C600F894809131019091320149
:103B1000A0913301B0913401805F984DAF4FBF4FFA
:103B20008093360190933701A0933801B093390107
:103B300083E062CA0895F894E1E3F1E08081918125
:103B4000A281B381805E9D4EA54FBF4F8583968332
:103B5000A783B08778940895F89480E880936100F3
:103B600081E080936100789415BC7EDE1092B100F4
:103B700014BC1092B0006B982FEF80E792E02150B8
:103B800080409040E1F700C000004F9BFECF2FEF38
:103B900080E792E0215080409040E1F700C00000B3
:103BA00080916D00806880936D0085E083BF88956B
:103BB00080916D008F7780936D005DDE86EC809341
:103BC0007A008EDFF89480E88093610010926100A3
:103BD0007894E6D9B0DF1092410108951F920F92B8
:103BE0000FB60F921124EF92FF920F931F932F9312
:103BF0003F934F935F936F937F938F939F93AF9375
:103C0000BF93CF93DF93EF93FF9316B1109516B93F
:103C100017B985E18A95F1F7000095E09A95F1F7DB
:103C2000000017B816B978948091B20087FFB8C029
:103C3000C091350180E28C0F8D3708F4AEC08091C1
:103C4000310190913201A0913301B091340101967C
:103C5000A11DB11D8093310190933201A0933301D6
:103C6000B093340140913601509137016091380191
:103C700070913901481759076A077B0708F46CDF10
:103C800080913F0169B1562F5095551F5527551FFB
:103C900090913E01409142012091430130914401B5
:103CA000591349C04111415067FD2FC021153105FD
:103CB00029F02150310911F410924501609147011A
:103CC000709148016F5F7F4F709348016093470187
:103CD000613797E1790730F08068109248011092BF
:103CE000470149C0693B9BE0790710F0806443C0FD
:103CF000613B744008F43FC09091460191113BC074
:103D0000826091E09093460136C02115310599F10A
:103D10002150310981F590914501913011F488606D
:103D200007C0923011F4806103C08062909340011B
:103D30001092450120C041111DC09091450167FDC1
:103D40000BC081609F3F09F09F5F10924801109265
:103D500047012AE431E007C084602115310509F4E8
:103D600090E0109246019093450150933E0144E14A
:103D700091E002C044E190E080933F014093420112
:103D800030934401209343019111D5DE80912801A5
:103D9000811101C0A5DE83EA8C0F8093350173C0C9
:103DA0008091260190912501C92FD0E0823009F43D
:103DB00041C028F4882351F08130C9F062C08330BB
:103DC00009F445C0843009F451C05BC04DDDCC0F0F
:103DD000DD1FCC0FDD1FC050DF4F8F858F3F29F0D7
:103DE00083E28093B000539A6B9A81E04AC06B984B
:103DF000923081F030F4992359F0913081F4709A27
:103E00000EC0943059F040F0953049F45A9A07C0EA
:103E10002E9A05C02F9A03C0719A01C05C9ACC0FEC
:103E2000DD1FCC0FDD1FC050DF4F8F858093B400A6
:103E300082E027C08FEF8093B400CC0FDD1FCC0F42
:103E4000DD1FC050DF4F8D8587BD83E01AC05398BA
:103E50008093B0008FEF87BDCC0FDD1FCC0FDD1F2F
:103E6000C050DF4F8E8588BD84E00BC08FEF88BDCA
:103E70009F5F963019F410920C0190E09093250109
:103E800080E080932601C2E4D2E000E2F12CEE242F
:103E9000E3949BA5802F8123F1F18CA59430D0F47D
:103EA0008823B1F1923010F490E801C090E0282FFF
:103EB0002695922B80FF2BC08981883248F4898116
:103EC000FE01E80FF11D928389818F5F89831DC0F8
:103ED000198215C09730E0F4803899F499819923BC
:103EE000B9F0E8828A818B3051F48981843039F4C9
:103EF000CE010E942017882311F0FF24F39480E064
:103F000007C09881911104C0198280E801C0892FEF
:103F10008CA71BA606C0983018F49F5F9BA701C012
:103F20001CA6E197069581E0CC31D80709F0B1CF06
:103F3000FF2029F080917302811101C053DCFF91B1
:103F4000EF91DF91CF91BF91AF919F918F917F9131
:103F50006F915F914F913F912F911F910F91FF9022
:0C3F6000EF900F900FBE0F901F9018956F
:0400000300003800C1
:00000001FF
