:10300000AF92BF92CF92DF92EF92FF920F931F93F6
:10301000CF93DF93C82ED12C99E8899F900111247A
:103020002D5E3E4FF901E857FF4F9081992309F437
:1030300039C1D081DD2311F03197D081C82F89E8C3
:103040008C9D80018D9D100D11240B5E1E4F87E617
:103050000E942B1DF80180810E942B1DF8018081A8
:103060008B3D61F5D33801F57801FFEFEF1AFF0AC8
:10307000F70180E090E02191820F9F5F9038D9F7AF
:10308000F801EF57FF4FD08131969BED9D0F890FCF
:1030900080959081981308C080911001C81304C0D6
:1030A00000910D01D01780F089E88C9DF0018D9D75
:1030B000F00D1124E556FE4F1082F4C08A3609F057
:1030C00090C0D53089F75AC088E60E942B1D8D2FFD
:1030D0000E942B1D10910C011D1319C082E40E9447
:1030E0002B1DB701812F0E94FB1C1F5F10930C0149
:1030F000011307C088E10E94781C8AE980930B01C4
:103100000DC010FF02C068E006C060E104C088E5A1
:103110000E942B1D66E08C2F0E94501C8CE40E94A4
:103120002B1DD0910C018D2F0E942B1D6D2F8C2FEC
:103130000E949D1D84E0809307011CC0812F0E9486
:10314000461D812F8D0F80950E94461D0E943A1DBD
:1031500081E090E00C2E01C0880F0A94EAF790916C
:103160000501892B8093050180910601C81302C0D7
:103170001092090180E180930A0196CF85E60E94B2
:103180002B1D80E38C0F0E942B1D80910D0181115E
:103190008BCF8DE20E942B1DF801818180930D0160
:1031A0008281938190930F0180930E01C09310014F
:1031B000C09306018CE40E942B1DD0910C018D2F31
:1031C0000E942B1D68E08C2F0E94501C6D2F8C2FAD
:1031D0000E949D1D84E0809307018DE480930B0184
:1031E00063CF8D3521F4D23009F05ECF0CC0883228
:1031F00009F05ACFD23009F057CFF8018181873DCD
:1032000009F052CF42C0F80111818CE60E942B1DBB
:10321000812F0E942B1D80E38C0F0E942B1D80911B
:103220000C01181770F510FF02C068E001C060E1E2
:103230008C2F0E94501C88E40E942B1D812F0E941D
:103240002B1D8C2F0E94601D882309F481CF8BEDEC
:103250000E94461DF0E81F9F70011124570180E86D
:10326000A80EB11CDBEDAE14BF0409F467CFF70163
:103270000491802F0E94461DD00FFFEFEF1AFF0A26
:10328000F2CF8EE30E942B1D63CF8FE60E942B1D91
:1032900080911001C81308CF81E08093080110923B
:1032A0000B0102CFDF91CF911F910F91FF90EF9013
:1032B000DF90CF90BF90AF90089596E0909310016B
:1032C000882361F00E94DE1C90930F0180930E0111
:1032D00080E680930D0180930C0104C010920D01D3
:1032E00010920C0180E20E94781C8DE480930B0107
:1032F00080E180930A011092090184E0A82E92E0F7
:10330000992E80910B01811105C080910A018823BB
:1033100009F4FBC0809108018111F7C0C0E08091E1
:103320001001863089F00E940018809107018111F8
:103330000BC080900C0180910D01881608F4F3C039
:1033400080910A018111EFC08C2F0E940018CF5F7D
:10335000C63029F7809109018111D3CF80910C01EA
:10336000882379F2F1C08091050190E00C2E02C013
:10337000959587950A94E2F780FD07C02B2D21785B
:10338000B22E622F8C2F0E94501CEC2FF0E0E459DB
:10339000F74CC491C09306018C1609F44BC0809180
:1033A000050190E00C2E02C0959587950A94E2F7EE
:1033B00080FD40C080910B01882309F4D4C0809126
:1033C0000A018111C8C0CFC08E2D817E8066E82E93
:1033D000682F8C2F0E94501C08C09F2D96609778F4
:1033E000F92E692F8C2F0E94501C85E40E942B1D02
:1033F00080E38C0F0E942B1D80900E0170900D01B8
:103400008C2F0E94601D8823A9F08AE60E94461D29
:10341000872D0E94461DCAE6C70D882D0E94461DB5
:103420008C0E80E00E94461D882D80950E94461DCE
:103430000E943A1D9092090164CF0E94DE1CE8169A
:10344000F90609F095C096C0C0E0809110018C1774
:1034500069F08C2F0E94601D882341F088E20E9451
:10346000461D87ED0E94461D0E943A1DCF5FC63063
:1034700061F7115049F7C5E0D97FD861DF798D2F09
:103480000E94781C2FEF80E792E02150804090400E
:10349000E1F700C000002D2D2178D22E822F0E944E
:1034A000781C8FEF90E722E0815090402040E1F7B8
:1034B00000C00000C15001F785B7982F916095BFFB
:1034C0008D7F85BFF8940C94000059C00660077882
:1034D000802F0E94781C8FEF90E722E0815090406F
:1034E0002040E1F700C000008C2D8178C82E0E949A
:1034F000781C9FEF20E782E0915020408040E1F768
:1035000000C00000C15011F7D7CF0E94DE1C7C0123
:1035100090930F0180930E0190910C0180910D0109
:10352000981326C08ACF82E50E942B1D8CE40E944E
:103530002B1D882D0E942B1D682D809110010E944B
:103540009D1DA092070100CFC0910601809010013F
:10355000C81109CF1ACF1660177E1066612F8C2F05
:103560000E94501C42CF80910B0181112DCF35CF8D
:0E357000C2E3ACCF8FE40E942B1D13E065CFA9
:103800000C943C1C0C944E1C0C944E1C0C944E1CA2
:103810000C944E1C0C94F61E0C94AE1D0C94BD1D05
:103820000C944E1C0C944E1C0C944E1C0C94CF1EED
:103830000C944E1C0C944E1C0C944E1C0C944E1C60
:103840000C94EE1D0C944E1C0C944E1C0C944E1CAF
:103850000C944E1C0C944E1C0C944E1C0C944E1C40
:103860000C944E1C0C944E1C0C944E1C020504002F
:10387000010300FFDA6F000011241FBECFEFD4E078
:10388000DEBFCDBF24E0A0E0B1E001C01D92AB35AA
:10389000B207E1F70E94F81E0C94641F0C94001C00
:1038A00090E0E62FE695E370F0E0ED58F74CE491F8
:1038B000DC01AA0FBB1F8A0F9B1FDC01A75BBB4F5C
:1038C000EC93E62FE695E695E695E370F0E0ED588B
:1038D000F74CE4911196EC9311976295669563709D
:1038E000E62FF0E0ED58F74CE4911296EC93089532
:1038F000CF93DF93D82FC6E0C15028F06D2F8C2FC7
:103900000E94501CF9CFDF91CF910895CF93DF93A0
:1039100040911101A7E4B4E0E0ECF3E020E230E8EC
:1039200051E08081922F9423B1F18430E0F49181B1
:10393000992379F1823010F480E801C080E0692F8A
:103940006695862B90FF0DC09C91953840F4EF0151
:10395000C90FD11D8A839F5F9C9331831AC0118246
:1039600017C0818316C08730A0F48181803849F464
:103970008C91882371F0EF01C857DF4F5883118273
:1039800008C0EF01C857DF4F8881811102C0318321
:103990001C92108206C0883018F48F5F808301C0AB
:1039A0001182E958F1092695A958B10980E0EA3851
:1039B000F80709F0B6CFDF91CF910895E0E0F0E08D
:1039C00040E050E080E090E0DF01A058BF4F20E0F1
:1039D00030E0EA17FB0729F06491260F311D31967C
:1039E000F8CF240F351F820F931F4F5F5F4F403674
:1039F000510551F7089520E8829FC0011124DB0191
:103A0000E0E0F0E021E0F8944D915D910A0120930F
:103A10005700E895112478943296E038F10599F72B
:103A2000F89423E0FC0120935700E895789407B6BA
:103A300000FCFDCFF89425E0FC0120935700E895A9
:103A4000789407B600FCFDCFF89481E1809357008D
:103A5000E895789408959091C00095FFFCCF8093ED
:103A6000C6000895B09BFECF909389008093880094
:103A7000B09A089580EB97E10E94321DB09BFECF73
:103A8000B09AB09BFECF1092810008950F931F93C0
:103A9000CF93DF93082FC8E0D0E011E0812F80237F
:103AA00019F08CE096E002C08EED9EE00E94321D7F
:103AB000110F219799F7DF91CF911F910F910895E1
:103AC00049E8849FF0011124ED5EFE4F9181911130
:103AD00032C098E1909381001092800021E030E0A4
:103AE000A90102C0440F551F8A95E2F7CA018F73DE
:103AF0008093120110928500109284003093890007
:103B00002093880083E0809380008CE096E090937F
:103B1000890080938800B19AB09A80916F0082608A
:103B200080936F0089E18093810080EB97E10E9490
:103B3000321D81E0089580E00895CF93C62F0E9442
:103B4000601D882349F08DE50E94461D8C2F0E9440
:103B5000461DCF910C943A1DCF9108951F920F925C
:103B60000FB60F9211248F9381E0809304018F91FF
:103B70000F900FBE0F901F9018951F920F920FB6C7
:103B80000F9211242F933F934F935F936F937F93E3
:103B90008F939F93AF93BF93EF93FF9386B18095DD
:103BA00086B987B99AE19A95F1F700C017B886B936
:103BB0008093110178940E94861CFF91EF91BF9130
:103BC000AF919F918F917F916F915F914F913F91B5
:103BD0002F910F900FBE0F901F9018951F920F926C
:103BE0000FB60F9211242F933F934F935F936F93D0
:103BF0007F938F939F93AF93BF93EF93FF9386B180
:103C0000809586B987B99AE19A95F1F700C017B8FF
:103C100086B98093110178948091020190E02091FF
:103C20000101223009F44BC028F4222351F0213045
:103C300001F177C0233009F450C0243009F462C088
:103C400070C02E9870982F9871985C985A98FC01C3
:103C5000EE0FFF1F8E0F9F1FFC01E75BFB4F828162
:103C60008F3F09F449C083E28093B000539A6B9A66
:103C700043C06B9820910201223081F030F422235E
:103C800059F0213081F4709A0EC0243059F040F080
:103C9000253049F45A9A07C02E9A05C02F9A03C0BE
:103CA000719A01C05C9AFC01EE0FFF1F8E0F9F1FDF
:103CB000FC01E75BFB4F82818093B4001DC02FEFB6
:103CC0002093B400FC01EE0FFF1F8E0F9F1FFC011D
:103CD000E75BFB4F808187BD0FC053982093B000F6
:103CE0002FEF27BDFC01EE0FFF1F8E0F9F1FFC0162
:103CF000E75BFB4F818188BD809101018F5F8093DD
:103D000001010FC08FEF88BD109201018091020167
:103D10008F5F80930201863021F41092000110928F
:103D200002010E94861C809103018150809303014F
:103D3000811124C080910901882329F08091090113
:103D400081508093090180910B01882329F0809193
:103D50000B01815080930B0180910A01882329F087
:103D600080910A01815080930A0180910701882384
:103D700029F080910701815080930701FF91EF9115
:103D8000BF91AF919F918F917F916F915F914F9173
:103D90003F912F910F900FBE0F901F9018951F927B
:103DA0000F920FB60F9211242F933F938F939F93EF
:103DB0009091120137B186B1892327B1292B27B9F8
:103DC00093B92AE12A95F1F700C093B986B99AE12F
:103DD0009A95F1F700C037B986B99F918F913F91BD
:103DE0002F910F900FBE0F901F9018951895089562
:103DF00030E830936100109261008091C0008260D1
:103E00008093C0008091C10088608093C1001092AF
:103E1000C5001092C4006A9A509A269A689A279A06
:103E2000699A549A529A5E9A5D9A569A559A81E086
:103E300080936E0082E08093700094B19F6394B988
:103E400097B1906C97B99FEF97BD98BD16BC25B5FB
:103E5000206825BD25B5206425BD23EA24BD23E2C5
:103E60002093B0003093B3009093B4001092B2004E
:103E70009091B10090649093B10093B5906893BD18
:103E800093B5926093BD93B5916093BD85BD8093CA
:103E9000B10083B58F7783BD85B7982F916095BFAB
:103EA000826085BF0E94DE1C90930F0180930E01FB
:103EB00078948AB5833511F481E001C080E00E94D6
:0C3EC0005D1980E090E00895F894FFCFB9
:0400000300003800C1
:00000001FF
