:103800000C943B380C9400380C9400380C9400381D
:103810000C94E2300C9459390C945A390C943C3A7B
:103820000C94C1390C94B1350C94E9390C943239AB
:103830000C94FA390C9469390C94E0300C94B63538
:043840000C943C3A6E
:106000000AB400FCFDCF90938900809388008AB584
:1060100081608ABD08959B01F894409131015091AF
:10602000320160913301709134017894420F531F13
:10603000611D711DFC014083518362837383089548
:10604000CF93C62F0E94DC38882369F08DE50E942B
:10605000C2388C2F0E94C23885E78C1B0E94C23840
:10606000CF910C94B138CF910895CF92DF92FF92E7
:106070000F931F93CF93DF93062FF42E152F0E94BB
:10608000DC38882319F18BED0E94C238CF2DD12F37
:106090006E0180E2C80ED11C1BEDF9908F2D0E947D
:1060A000C2381F0DCC16DD06C1F7802F0E94C23802
:1060B00082ED801B811B0E94C238DF91CF911F911E
:1060C0000F91FF90DF90CF900C94B138DF91CF917A
:1060D0001F910F91FF90DF90CF900895CF93DF93A2
:1060E000C0E0D1E0DE01EC912E2F22952695269579
:1060F000237011968C911197982F9770990F990F83
:10610000922B869586958695E695EF71F0E0EC5B8F
:10611000FF48E491ED87E92FF0E0EC5BFF48E49164
:10612000EE87E82FF0E0EC5BFF48E491EF871296F2
:10613000249681E0AC30B807B1F6DF91CF91089595
:10614000E0E0F1E0119282E0EE37F807D8F38091B9
:10615000310190913201A0913301B0913401805E00
:106160009D4EA54FBF4F8093360190933701A0936A
:106170003801B0933901B2CFC82FF894E1DFC09352
:10618000280108E00EBF0FEF0DBF78940C940000BB
:10619000EDE4F1E0108212AA1092B1011092E30135
:1061A00010921502109247020895F894EEE3F1E080
:1061B00011821482168215821286118678940895AF
:1061C00082E00895FF920F931F93CF93DF93F62EF3
:1061D000072F142FF1D7882361F087E3D3D7CF2D72
:1061E000D02F112321F08991CDD71150FACFB9D7F3
:1061F00081E0DF91CF911F910F91FF900895182FAB
:10620000C12FDE63DF738D2F90E00E94CA392FEF1C
:1062100080E792E0215080409040E1F700C000000C
:10622000B7DF80E090E00E94CA392FEF80E792E06C
:10623000215080409040E1F700C00000A9DFC1502C
:1062400021F080913F0180FFDCCFC6E0C15021F0FA
:1062500080913F0180FF0CC080913F0180FFD0CF33
:10626000F89480E18093600088E080936000FFCF25
:1062700080E090E00E94CA392FEF80E792E0215041
:1062800080409040E1F700C0000082DF80E090E0B5
:106290000E94CA392FEF80E792E021508040904061
:1062A000E1F700C0000074DFD1CF2F923F924F92F0
:1062B0005F926F927F928F929F92AF92BF92CF9296
:1062C000DF92EF92FF920F931F93CF93DF93CDB79F
:1062D000DEB7C05CD1090FB6F894DEBF0FBECDBFEC
:1062E000C82EE62EC355DF4F59834883CD5AD04080
:1062F00024E0281720F0FF24F394F80E01C0F12CBD
:106300000E94E93980E090E00E94CA39E11002C0A1
:1063100018EB01C01DEF37E0C3120EC0312E330C55
:10632000330C60E177E2CE018F559F4F74DED12EA2
:10633000222423940FE313C081E090E00C2C01C0D1
:10634000880F0A94EAF7082F00950F7360E070E059
:10635000CE018F559F4F5FDE312C212CD12CCB5598
:10636000DF4F188219821A821B82C55AD0401DDF66
:10637000A0D683E582D6812F87D6211002C08EE475
:1063800001C082E57AD6EE2039F04DE4CA54DF4FE1
:106390004883C65BD04006C053E5CA54DF4F5883DC
:1063A000C65BD040C355DF4F8881CD5AD040CB5417
:1063B000DF4F8883C55BD040EE2039F09AE4C055AA
:1063C000DF4F9883C05BD04006C0EBE0C055DF4F85
:1063D000E883C05BD040C255DF4FF881CE5AD04031
:1063E000C554DF4FF883CB5BD04082EDC355DF4F00
:1063F0002881CD5AD040821B8F1BC055DF4F48816A
:10640000C05BD040841BC454DF4F8883CC5BD0403A
:10641000E12E53E0C455DF4F5883CC5AD040C155CC
:10642000DF4F1882CF5AD0408C2D90E0E2E3E89FF6
:106430009001E99F300D1124A901435B5E4F3A01A1
:10644000FA013396C954DF4FF983E883C75BD04024
:10645000A901405B5E4FCF54DF4F59834883C15B36
:10646000D040FC01EE0FFF1FC754DF4FF983E883D4
:10647000C95BD0404F5F5F4FC354DF4F59834883A0
:10648000CD5BD040E050FF4FCD54DF4FF983E88320
:10649000C35BD0409E012F573F4FC755DF4F398315
:1064A0002883C95AD040A901405E5F4FC154DF4FD5
:1064B00059834883CF5BD040222019F0002309F490
:1064C0001DC180913F0180FD19C1211082C1F301DE
:1064D0008081882309F47DC1ECD58CE3CED58C2D49
:1064E000D3D5C954DF4FE881F981C75BD0408081A3
:1064F0008B3D09F036C1F3018281833209F031C14D
:10650000C301EFD5882309F42CC188E4B6D5CF5454
:10651000DF4FE881F981C15BD04081A1B5D5CF546F
:10652000DF4FE881F981C15BD04081A18D1122C18B
:106530008BE2A3D5C754DF4FE881F981C95BD04016
:10654000E050FF4F818187709D2D9295990F907E2D
:10655000892B81838D2D8370A1E0B0E0AC0FBD1F2E
:10656000F0E28F9FA00DB11D112490E2C354DF4FC4
:10657000E881F981CD5BD04001900D929A95E1F7C9
:10658000833031F4BE016F5F7F4F832DE7D63394A4
:10659000D3941D110EC1CD54DF4FE881F981C35B47
:1065A000D0408081806C808383E08183D12EC5556B
:1065B000DF4F1882CB5AD040011100C17AD58EE34B
:1065C0005CD58C2D61D584E458D5BB24B394B10E31
:1065D0008B2D5AD56B2D8C2D33DDF30110824F2C72
:1065E000512CF2E3F49D5001F59DB00C112495015E
:1065F000235B3E4F4901F9018081882309F4FFC0E4
:1066000058D58CE33AD58F2D3FD5F40183818D3554
:1066100009F0F3C08281833009F0EFC0C40161D575
:10662000882309F4EAC081E090E04C010F2C01C0FE
:10663000880C0A94EAF7C155DF4FF881CF5AD04051
:10664000F829C155DF4FF883CF5AD040F501E05B00
:10665000FE4FE1808CE411D58E2D16D55201AA0C87
:10666000BB1CE11608F4C7C01E1508F0B8C0809422
:106670000821F501E050FF4F8081806C808381818B
:106680008760818399249394F501E050FF4F8181C5
:1066900087709E2D9295990F907E892B818322E39E
:1066A000249DF001259DF00D1124E35BFE4F108227
:1066B000ED1408F4A6C0F8944091310150913201D4
:1066C00060913301709134017894CB55DF4F88810C
:1066D0009981AA81BB81C55AD04084179507A60726
:1066E000B70708F4D9C0911087C1F8DCC555DF4F52
:1066F0002881CB5AD040222309F4DECEDAD488E5B3
:10670000BCD483E0F82E00E0802F56D5882329F0F2
:1067100088EE38D58AEE36D524D50F5F0630A1F73E
:10672000FA94F110F0CF41DD1D1161C130E2139FE9
:10673000A0011124E0E0F0E080E090E04E175F0758
:1067400029F02491820F911D3196F8CFC355DF4F68
:1067500048815981CD5AD0404817590709F047C19F
:1067600054C1C954DF4FE881F981C75BD0408081B3
:10677000883E31F0C555DF4F1882CB5AD04015C046
:10678000F30182818230B1F7C301ABD4882391F346
:1067900090D48CE372D48C2D77D487E66ED4F1E05C
:1067A000C555DF4FF883CB5AD0401D1509F404CFEF
:1067B00005C0C555DF4F1882CB5AD0407AD48EE33E
:1067C0005CD48C2D61D48CE458D48D2D5DD46D2D8A
:1067D00002CFC555DF4F1882CB5AD04000CF84E49A
:1067E0004CD4F501E050FF4F8081806C8083818123
:1067F000887F836046CF912C47CF912C50CF912C2E
:1068000057CF57D48EE339D48F2D3ED488E435D476
:106810008E2D3AD48E2D86958695831508F530E217
:10682000E39EC0011124DE01AF57BF4FC755DF4FB4
:1068300048815981C95AD040841B950BFC01EA0F4D
:10684000FB1FE491ED93C154DF4FE881F981CF5BE9
:10685000D040EA17FB0791F7AE014F575F4F0BC0CF
:106860008E2D837041E050E04C0F5D1FF0E28F9F52
:10687000400D511D11246E2D8F2DF7DB68E770E060
:10688000CE018B559F4FC7DBE12E23E0C455DF4F70
:106890002883CC5AD0400FCFC455DF4F5881CC5AF3
:1068A000D040511121C0F8944091310150913201F2
:1068B00060913301709134017894CF55DF4F888116
:1068C0009981AA81BB81C15AD04084179507A60738
:1068D000B70768F481E090E0042C01C0880F0A94A7
:1068E000EAF78095082303C0992009F482C0F201D9
:1068F000EE0FFF1FE050FF4F8181877081830023DF
:1069000009F4F3CE202F30E045E0F41611F0F394B3
:1069100001C0F12CC9010F2C02C0959587950A94EE
:10692000E2F780FFF1CF53E0C455DF4F5883CC5AD4
:10693000D040BFD38EE3A1D38F2DA6D385E49DD3C2
:10694000CA54DF4F8881C65BD04097D3CB54DF4F0A
:106950008881C55BD04098D38F2D2ED48823C9F071
:10696000C055DF4F8881C05BD0400CD4CB54DF4F83
:106970008881C55BD04006D4C554DF4F8881CB5B8E
:10698000D04000D4C454DF4F8881CC5BD040FAD3D0
:10699000E8D3EF2DF0E0EE0FFF1FE050FF4F8181B5
:1069A000886F8183C155DF4FE881CF5AD0408E2F49
:1069B00090E00F2C02C0959587950A94E2F780FD30
:1069C00003C062E370E002C068E770E0CE018B555F
:1069D0009F4F21DBC455DF4FF881CC5AD040F15096
:1069E000C455DF4FF883CC5AD040E12E7ECE83E0F1
:1069F00006DC01119ECF79CEC455DF4F8881CC5A79
:106A0000D040882309F44FCF72CFC054DF4F0FB668
:106A1000F894DEBF0FBECDBFDF91CF911F910F91D4
:106A2000FF90EF90DF90CF90BF90AF909F908F90AE
:106A30007F906F905F904F903F902F900895C82F58
:106A4000F89408E00EBF0FEF0DBF78942EDCC7302E
:106A500011F481E001C082E08FDBD82F81E08093C8
:106A600079024695C0E0442319F04695CF5FFBCFED
:106A7000FB0104811581108260E08C2FE1DAA8010E
:106A80006D2F8C2FDCDF40E050E0E0E0F0E08491FF
:106A9000480F511D3196E03A8FE1F807C1F761E0E8
:106AA00087E0CDDF14B714BE87EF84BF0FB6F8942C
:106AB000A8958091600088618093600010926000CA
:106AC0000FBEC0E8C0936100D1E0D09361002FEF0A
:106AD00080E792E0215080409040E1F700C0000044
:106AE0002FDB85B7982F916095BF826085BFC0BFAF
:106AF00084E88093640080916800846080936800DB
:106B00005F9A729A589A599A269A689A279A699A15
:106B1000549A529A5E9A5D9A569A559AD0936E00FC
:106B200082E080937000F2D284B18F6384B987B120
:106B3000806C87B9789437D4F894C0936100109230
:106B4000610078948091C00082608093C000809141
:106B5000C10088608093C100D9D311FD94DF80E02B
:0E6B60000BDBD4D381E0809379028DDF48DB1C
:107000003AC00000FDCF0000FBCF0000F9CF000028
:10701000D9C800004EC100004DC100002DC20000C3
:10702000B0C100009ECD0000D4C100001BC1000013
:10703000E1C100004EC10000C3C8000097CD0000B0
:107040001BC20000FFFEFDFBFAF8F5F2EEEAE6E0F7
:10705000DAD3CCC3BAB0A5998C7E6F5F4E3B2813B0
:107060000D09030130313233343536373839616236
:10707000636465660000112415DD9091C00095FFE2
:10708000FCCF8093C6000895CF93C82FE82FF0E07F
:1070900084E0F595E7958A95E1F7EC59FF488491EE
:1070A000ECDFCF70EC2FF0E0EC59FF488491CF91EA
:1070B000E4CFCF92DF92EF92FF928AE0DEDFC090C2
:1070C0003101D0903201E0903301F09034018D2DE8
:1070D000DBDF8C2DD9DF8AE3FF90EF90DF90CF903C
:1070E000CCCFFC012281339690E0215018F08191A1
:1070F000980FFBCF81E0923D09F080E008952E9833
:1071000070982F9871985C985A9808958FEF87BD62
:1071100088BD16BC95B5906895BD95B5906495BD34
:1071200093EA94BD93E29093B00090E89093B300FB
:107130008093B4001092B200E1EBF0E080818064B3
:10714000808383B5806883BD83B5826083BD83B54A
:10715000816083BD82E085BD808383B58F7783BDE9
:10716000089580EB97E10E940030EDE4F1E0118298
:1071700013AA1092B2011092E4011092160210921A
:10718000480208950F931F93CF93DF93082FC8E011
:10719000D0E011E0812F802319F08CE096E002C04E
:1071A0008EED9EE00E940030110F219799F7DF913C
:1071B000CF911F910F910895F89442E3849FF001BD
:1071C0001124E35BFE4F95A5911103C091E09183DB
:1071D00001C090E078949923C9F121E030E0A90141
:1071E00002C0440F551F8A95E2F7CA012091810021
:1071F0002111FCCF98E190938100109280001092B1
:1072000085001092840021E030E0309389002093C3
:10721000880093E0909380002CE036E03093890062
:1072200020938800B19A90916F00926090936F00C4
:1072300080938A008AB581608ABD89E1809381004C
:1072400080EB97E10E94003081E0089580E008958E
:1072500085EC80937A0080917A0086FDFCCF809146
:10726000790008951F920F920FB60F9211248F93F9
:107270009F9380918A0087B983B995E39A95F1F736
:10728000000083B986B995E09A95F1F7000017B828
:1072900086B90AB400FC03C01092810003C08AB50D
:1072A0008E7F8ABD9F918F910F900FBE0F901F9080
:1072B000189518951F920F920FB60F9211248F9365
:1072C00086B5809327018F910F900FBE0F901F906E
:1072D000189590E8899FF0011124F89483E0809339
:1072E0005700E895789407B600FCFDCFF89485E048
:1072F00080935700E895789407B600FCFDCFF8948A
:1073000081E180935700E895789408950F931F9337
:10731000CF93DF9300E019E3C0E0D1E0980180E073
:1073200090E0F901459154912E5F3F4FF894FC0194
:107330000A01D0935700E89511247894029680387A
:10734000910579F78C2FC5DFCF5F00581F4FCF33E2
:1073500029F7DF91CF911F910F910895E0E0F0E0C0
:1073600091E0F894DB012D913D91BD0109019093CD
:107370005700E895112478943296E038F10589F7A2
:10738000A8CF81E080930C0180910C018111FCCF8A
:107390000C946E30E0E0F1E08193919321E0EC30C9
:1073A000F207D1F7EECF8EE680937C0085EC8093D8
:1073B0007A008DE58A95F1F700004ADF49DF48DF62
:1073C00047DF10927A008A3718F082E00C94FF3081
:1073D0000895F894E1E3F1E080819181A281B38185
:1073E000805E9D4EA54FBF4F85839683A783B08750
:1073F00078940895EEDFF89480E88093610081E04E
:1074000080936100789415BC7ADE1092B10014BCB0
:107410001092B0006B982FEF80E792E021508040EF
:107420009040E1F700C000004F9BFECF2FEF80E7B8
:1074300092E0215080409040E1F700C00000809130
:107440006D00806880936D0085E083BF8895809192
:107450006D008F7780936D00F89458DE0E94D530D0
:107460007894A1DFF89480E8809361001092610025
:1074700078941092410108951F920F920FB60F92C7
:107480001124FF920F931F932F933F934F935F937A
:107490006F937F938F939F93AF93BF93CF93DF931C
:1074A000EF93FF9316B1109586B578948C5E96B5E0
:1074B0009817E8F316B917B985E08A95F1F7000037
:1074C00017B816B98091B20087FFB3C0C0913501DB
:1074D00080E28C0F8D3708F4A9C080913101909122
:1074E0003201A0913301B09134010196A11DB11D6B
:1074F0008093310190933201A0933301B093340112
:1075000040913601509137016091380170913901F5
:10751000481759076A077B0708F46CDF80913F0121
:1075200069B1562F5095551F5527551F90913E0113
:10753000409142012091430130914401591349C0C7
:107540004111415067FD2FC02115310529F021500F
:10755000310911F410924501609147017091480181
:107560006F5F7F4F7093480160934701613797E1E8
:10757000790730F08068109248011092470149C0A5
:10758000693B9BE0790710F0806443C0613B744025
:1075900008F43FC09091460191113BC0826091E098
:1075A0009093460136C02115310599F121503109DA
:1075B00081F590914501913011F4886007C09230B7
:1075C00011F4806103C080629093400110924501E4
:1075D00020C041111DC09091450167FD0BC0816025
:1075E0009F3F09F09F5F10924801109247012AE4E3
:1075F00031E007C084602115310509F490E0109254
:1076000046019093450150933E0144E191E002C050
:1076100044E190E080933F01409342013093440164
:10762000209343019111D5DE83EA8C0F80933501BD
:1076300073C08091260190912501C92FD0E082303E
:1076400009F441C028F4882351F08130C9F062C0A8
:10765000833009F445C0843009F451C05BC04FDD6C
:10766000CC0FDD1FCC0FDD1FC050DF4F8F858F3F4C
:1076700029F083E28093B000539A6B9A81E04AC06C
:107680006B98923081F030F4992359F0913081F465
:10769000709A0EC0943059F040F0953049F45A9ADF
:1076A00007C02E9A05C02F9A03C0719A01C05C9A38
:1076B000CC0FDD1FCC0FDD1FC050DF4F8F858093B7
:1076C000B40082E027C08FEF8093B400CC0FDD1FA1
:1076D000CC0FDD1FC050DF4F8D8587BD83E01AC002
:1076E00053988093B0008FEF87BDCC0FDD1FCC0F78
:1076F000DD1FC050DF4F8E8588BD84E00BC08FEF4B
:1077000088BD9F5F963019F410920C0190E0909321
:10771000250180E080932601C7E4D2E000E2FF2447
:10772000F3949CA5802F812309F456C08DA5943035
:10773000D8F4882309F443C0923010F490E801C0D3
:1077400090E0282F2695922B80FF42C08A818832B4
:1077500048F48A81FE01E80FF11D93838A818F5FCF
:107760008A835EC01A822BC0973098F5803849F51D
:107770009A81992371F1F8828B818B3071F48A811F
:10778000843059F4CE01ADDC882339F08091790240
:10779000811115C0402FBE0111C08B818A3479F44C
:1077A0008A81843061F4CE019CDC882341F0809191
:1077B0007902811104C0402FBE0181E04ED980E0E2
:1077C00008C09881911105C09981992341F101C0A8
:1077D000892F8DA71CA606C0983018F49F5F9CA720
:1077E00001C01DA6E297069581E0CB31D80709F0CC
:1077F00098CFFF91EF91DF91CF91BF91AF919F9182
:107800008F917F916F915F914F913F912F911F9138
:107810000F91FF900F900FBE0F901F9018951A8236
:0478200080E8D7CF56
:040000030000700089
:00000001FF
