:103800000C943B380C9400380C9400380C9400381D
:103810000C94E7300C944E390C944F390C94203AA8
:103820000C948E390C9405350C94B6390C942739C8
:103830000C94DE390C945E390C94E5300C9406350A
:043840000C94203A8A
:106000000AB400FCFDCF90938900809388008AB584
:1060100081608ABD08959B01F894409131015091AF
:10602000320160913301709134017894420F531F13
:10603000611D711DFC014083518362837383089548
:1060400090E2899FA0011124E0E0F0E080E090E080
:10605000E417F50729F02491820F911D3196F8CFAE
:106060000895CF93C62F0E94C438882369F08DE528
:106070000E94AA388C2F0E94AA3885E78C1B0E94A8
:10608000AA38CF910C949938CF910895CF92DF928E
:10609000FF920F931F93CF93DF93062FF42E152FAC
:1060A0000E94C438882319F18BED0E94AA38CF2DA5
:1060B000D12F6E0180E2C80ED11C1BEDF9908F2DFF
:1060C0000E94AA381F0DCC16DD06C1F7802F0E9452
:1060D000AA3882ED801B811B0E94AA38DF91CF91E4
:1060E0001F910F91FF90DF90CF900C949938DF9122
:1060F000CF911F910F91FF90DF90CF900895CF9394
:10610000DF93C0E0D1E0DE01EC912E2F22952695A1
:106110002695237011968C911197982F9770990F4F
:10612000990F922B869586958695E695EF71F0E00E
:10613000EC5BFF48E491ED87E92FF0E0EC5BFF4872
:10614000E491EE87E82FF0E0EC5BFF48E491EF8705
:106150001296249681E0AC30B807B1F6DF91CF916A
:106160000895E0E0F1E0119282E0EE37F807D8F30D
:106170008091310190913201A0913301B0913401AD
:10618000805E9D4EA54FBF4F80933601909337019F
:10619000A0933801B0933901B2CFEDE4F1E0108261
:1061A00012AA1092B1011092E301109215021092FE
:1061B00047020895F894EEE3F1E01182148216820A
:1061C0001582128611867894089582E00895FF92D0
:1061D0000F931F93CF93DF93F62E072F142FD4D74F
:1061E000882361F087E3B6D7CF2DD02F112321F07C
:1061F0008991B0D71150FACF9CD781E0DF91CF9130
:106200001F910F91FF900895182FC12FDE63DF7348
:106210008D2F90E00E9497392FEF80E792E0215078
:1062200080409040E1F700C00000B7DF80E090E0E0
:106230000E9497392FEF80E792E0215080409040F4
:10624000E1F700C00000A9DFC15021F080913F01BB
:1062500080FFDCCFC6E0C15021F080913F0180FF7C
:106260000CC080913F0180FFD0CFF89480E18093F3
:10627000600088E080936000FFCF80E090E00E94A3
:1062800097392FEF80E792E0215080409040E1F76E
:1062900000C0000082DF80E090E00E9497392FEF7D
:1062A00080E792E0215080409040E1F700C000007C
:1062B00074DFD1CF2F923F924F925F926F927F9275
:1062C0008F929F92AF92BF92CF92DF92EF92FF9206
:1062D0000F931F93CF93DF93CDB7DEB7CD5BD1097B
:1062E0000FB6F894DEBF0FBECDBFC455DF4F888315
:1062F000CC5AD040D62E1A01F82EF39425E02F1553
:1063000008F4F12C0E94B63980E090E00E949739A1
:10631000D11002C008EB01C00DEFC455DF4F38812A
:10632000CC5AD040373071F4502E550C550C60E1EA
:1063300077E2CE018F559F4F6EDEE02E44244394CA
:106340001FE318C081E090E0C455DF4F0880CC5AAD
:10635000D04002C0880F991F0A94E2F7182F1095B9
:106360001F7360E070E0CE018F559F4F54DE512CBB
:10637000412CE12CCB55DF4F188219821A821B82E7
:10638000C55AD04017DF89E478D6802F7DD682E5C4
:1063900074D6842D79D6DD2039F04AE4C255DF4F1A
:1063A0004883CE5AD04006C05BE0C255DF4F5883C9
:1063B000CE5AD040C954DF4F2882C75BD040C85462
:1063C000DF4F3882C85BD04082ED82198319C255F5
:1063D000DF4F9881CE5AD040891BC754DF4F888346
:1063E000C95BD040D02EE3E0C555DF4FE883CB5AE0
:1063F000D040C355DF4F1882CD5AD040C455DF4F2F
:10640000F881CC5AD0408F2F90E042E3489F900112
:10641000499F300D1124F901E35BFE4F3F01AF01AD
:106420004D5F5F4FCF54DF4F59834883C15BD040EE
:10643000F901E05BFE4FCD54DF4FF983E883C35B86
:10644000D0409C01220F331FCB54DF4F3983288368
:10645000C55BD0403196C654DF4FF983E883CA5BF1
:10646000D04020503F4FC155DF4F39832883CF5A4A
:10647000D040AE014F575F4FC755DF4F5983488318
:10648000C95AD040CA018096C454DF4F998388838B
:10649000CC5BD040442019F0112309F4DDC1809178
:1064A0003F0180FDD9C1411087C0F301808188235D
:1064B00009F482C0CF54DF4FE881F981C15BD0403D
:1064C00080818B3D09F052C0F3018281833209F053
:1064D0004DC0C301EED5882309F448C0CD54DF4F29
:1064E000E881F981C35BD04081A18E1152C0CB54A9
:1064F000DF4FE881F981C55BD040E050FF4F8181DB
:1065000087709E2D9295990F907E892B81838E2D79
:106510008370A1E0B0E0AC0FBD1FF0E28F9FA00D33
:10652000B11D112490E2C654DF4FE881F981CA5BA6
:10653000D04001900D929A95E1F7833031F4BE017D
:106540006F5F7F4F852DD7D65394E3940E1129C0EA
:10655000C155DF4FE881F981CF5AD0408081806CEE
:10656000808383E08183E02EC12C16C0CF54DF4F9F
:10657000E881F981C15BD0408081883E51F4F3010C
:106580008281823031F4C30194D5CC24C39481112B
:1065900001C0C12C0E1106C0111104C061E0600FD2
:1065A00002C0C12C6E2DC455DF4F8881CC5AD0401B
:1065B00058DDF301108201C0C12CAF2CB12CF2E3E5
:1065C000FA9D4001FB9D900C1124F401E35BFE4F0A
:1065D0008081882309F44EC083818D3509F03FC046
:1065E00082818330E1F5CF0164D58823C1F181E058
:1065F00090E00F2C01C0880F0A94EAF7C355DF4FD3
:106600002881CD5AD040282BC355DF4F2883CD5A3F
:10661000D040F401E05BFE4FD180F501EE0FFF1F8B
:10662000D01688F080951823DF01A050BF4F8C91C1
:10663000806C8C9311968C911197876011968C9336
:106640009924939401C0912CE050FF4F8181877071
:106650009D2D9295990F907E892B818301C0912C5D
:1066600032E33A9DF0013B9DF00D1124E35BFE4FB8
:10667000108201C0912CDE1408F041C08D2D86954A
:106680008695851508F540E2D49EC0011124DE01EF
:10669000AF57BF4FC755DF4FE881F981C95AD04086
:1066A0008E1B9F0BFC01EA0FFB1FE491ED93C4547A
:1066B000DF4F28813981CC5BD0402A173B0791F707
:1066C000AE014F575F4F0BC08D2D837041E050E0FE
:1066D0004C0F5D1F30E2839F400D511D11246D2D25
:1066E0008F2DD4DC68E770E0CE018B559F4F93DC93
:1066F000D02E43E0C555DF4F4883CB5AD040F894A5
:106700004091310150913201609133017091340117
:106710007894CB55DF4F88819981AA81BB81C55A76
:10672000D04084179507A607B70718F09110C5C089
:106730008FC0C555DF4F2881CB5AD0402111A7C04B
:10674000F894409131015091320160913301709180
:1067500034017894CF55DF4F88819981AA81BB811C
:10676000C15AD04084179507A607B70748F481E0BF
:1067700090E00A2C01C0880F0A94EAF7809518234C
:10678000F501EE0FFF1FE050FF4F8181877081837D
:10679000112309F45DC0212F30E0F39456E0F51287
:1067A00001C0F12CC9010F2C02C0959587950A9460
:1067B000E2F780FFF2CF83E0C555DF4F8883CB5AE5
:1067C000D0408F2DE1D48823C9F0C255DF4F888196
:1067D000CE5AD040BFD4C954DF4F8881C75BD04068
:1067E000B9D4C854DF4F8881C85BD040B3D4C754F4
:1067F000DF4F8881C95BD040ADD49BD4EF2DF0E052
:10680000EE0FFF1FE050FF4F8181886F8183C355DA
:10681000DF4FE881CD5AD0408E2F90E00F2C02C080
:10682000959587950A94E2F780FD34C062E370E0A5
:10683000CE018B559F4FEFDBC555DF4FF881CB5A0B
:10684000D040F150C555DF4FF883CB5AD040D02E01
:1068500056DCCC2009F41ECE83E0F82E10E0812F08
:1068600093D4882329F088EE75D48AEE73D461D44A
:106870001F5F1630A1F7FA94F110F0CF9BDC0E11D8
:106880000CC0802FDDDB2816390639F41FC0992093
:1068900089F076CF68E770E0CBCF832DF5D3822DDA
:1068A000F3D3802FCDDB182F892FEED3812FECD39C
:1068B00083E0AADC111185CFCBCFC555DF4F3881DE
:1068C000CB5AD040332309F43BCF5ACFC354DF4FC8
:1068D0000FB6F894DEBF0FBECDBFDF91CF911F91F1
:1068E0000F91FF90EF90DF90CF90BF90AF909F906F
:1068F0008F907F906F905F904F903F902F90089572
:1069000088EB9EDBBC0187E042D5D4B714BE87EF8D
:1069100084BF0FB6F894A895809160008861809339
:106920006000109260000FBEC0E8C093610011E0EB
:10693000109361002FEF80E792E02150804090405B
:10694000E1F700C000000DDC85B7982F916095BF7E
:10695000826085BFC0BF84E8809364008091680036
:106960008460809368005F9A729A589A599A269A1E
:10697000689A279A699A549A529A5E9A5D9A569A98
:10698000559A10936E0082E080937000A7D384B173
:106990008F6384B987B1806C87B97894D1D4F89427
:1069A000C09361001092610078948091C000826071
:1069B0008093C0008091C10088608093C10081E411
:1069C0005CD300E017E1C0E0FF24F394980180E07D
:1069D00090E0F901459154912E5F3F4FF894FC01EE
:1069E0000A01F0925700E8951124789402968038B5
:1069F000910579F78C2F62D4CF5F00581F4FCE32AC
:0E6A000029F7D1FD7DDF80E00BD47ADFFDDBCE
:107000003AC00000FDCF0000FBCF0000F9CF000028
:10701000DEC8000043C1000042C1000011C20000F0
:107020007DC10000F2CC0000A1C1000010C1000031
:10703000C5C1000043C10000C8C80000E7CC000083
:10704000FFC10000FFFEFDFBFAF8F5F2EEEAE6E014
:10705000DAD3CCC3BAB0A5998C7E6F5F4E3B2813B0
:107060000D09030130313233343536373839616236
:10707000636465660000112448DC9091C00095FFB0
:10708000FCCF8093C6000895CF93C82FE82FF0E07F
:1070900084E0F595E7958A95E1F7EC59FF488491EE
:1070A000ECDFCF70EC2FF0E0EC59FF488491CF91EA
:1070B000E4CFFC012281339690E0215018F08191B9
:1070C000980FFBCF81E0923D09F080E008952E9863
:1070D00070982F9871985C985A9808958FEF87BD93
:1070E00088BD16BC95B5906895BD95B5906495BD65
:1070F00093EA94BD93E29093B00090E89093B3002C
:107100008093B4001092B200E1EBF0E080818064E3
:10711000808383B5806883BD83B5826083BD83B57A
:10712000816083BD82E085BD808383B58F7783BD19
:10713000089580EB97E10E940030EDE4F1E01182C8
:1071400013AA1092B2011092E4011092160210924A
:10715000480208950F931F93CF93DF93082FC8E041
:10716000D0E011E0812F802319F08CE096E002C07E
:107170008EED9EE00E940030110F219799F7DF916C
:10718000CF911F910F910895F89442E3849FF001ED
:107190001124E35BFE4F95A5911103C091E091830B
:1071A00001C090E078949923C9F121E030E0A90171
:1071B00002C0440F551F8A95E2F7CA012091810051
:1071C0002111FCCF98E190938100109280001092E1
:1071D00085001092840021E030E0309389002093F4
:1071E000880093E0909380002CE036E03093890093
:1071F00020938800B19A90916F00926090936F00F5
:1072000080938A008AB581608ABD89E1809381007C
:1072100080EB97E10E94003081E0089580E00895BE
:10722000C82FF8940E94B130C093280104E00EBF2B
:107230000FEF0DBF78940C94000085EC80937A00DA
:1072400080917A0086FDFCCF8091790008951F928D
:107250000F920FB60F9211248F939F9380918A0003
:1072600087B983B995E39A95F1F7000083B986B998
:1072700095E09A95F1F7000017B886B90AB400FCBA
:1072800003C01092810003C08AB58E7F8ABD9F9192
:107290008F910F900FBE0F901F90189518951F9209
:1072A0000F920FB60F9211248F9386B5809327010A
:1072B0008F910F900FBE0F901F90189590E8899FA7
:1072C000F0011124F89483E080935700E8957894B6
:1072D00007B600FCFDCFF89485E080935700E89551
:1072E000789407B600FCFDCFF89481E180935700B5
:1072F000E89578940895E0E0F0E091E0F894DB01FF
:107300002D913D91BD01090190935700E8951124FD
:1073100078943296E038F10589F7D0CF81E08093F8
:107320000C0180910C018111FCCF0C947F30E0E0C6
:10733000F1E08193919321E0EC30F207D1F7EECFA9
:107340008EE680937C0085EC80937A008DE58A95AB
:10735000F1F7000072DF71DF70DF6FDF10927A00EB
:107360008A3718F082E00C9404310895F894E1E330
:10737000F1E080819181A281B381805E9D4EA54F15
:10738000BF4F85839683A783B08778940895C82FCD
:10739000AB01F89404E00EBF0FEF0DBF789481E0CD
:1073A0008093790260E08C2F0E945A31109279020A
:1073B000C73011F481E001C082E032DFD7DFF894FA
:1073C00080E88093610081E080936100789415BC2F
:1073D0007EDE1092B10014BC1092B0006B982FEFBB
:1073E00080E792E0215080409040E1F700C000002B
:1073F0004F9BFECF2FEF80E792E0215080409040DE
:10740000E1F700C0000080916D00806880936D00FE
:1074100085E083BF889580916D008F7780936D00A4
:10742000F8945CDE0E94DA3078948ADFF89480E881
:107430008093610010926100789410924101089548
:107440001F920F920FB60F921124FF920F931F936A
:107450002F933F934F935F936F937F938F939F935C
:10746000AF93BF93CF93DF93EF93FF9316B1109534
:1074700086B578948C5E96B59817E8F316B917B967
:1074800085E08A95F1F7000017B816B98091B2002F
:1074900087FFB3C0C091350180E28C0F8D3708F4AF
:1074A000A9C08091310190913201A0913301B09136
:1074B00034010196A11DB11D8093310190933201D9
:1074C000A0933301B09334014091360150913701BC
:1074D0006091380170913901481759076A077B0795
:1074E00008F46CDF80913F0169B1562F5095551F0C
:1074F0005527551F90913E01409142012091430133
:1075000030914401591349C04111415067FD2FC0CA
:107510002115310529F02150310911F4109245014E
:1075200060914701709148016F5F7F4F70934801F0
:1075300060934701613797E1790730F080681092D6
:1075400048011092470149C0693B9BE0790710F060
:10755000806443C0613B744008F43FC09091460191
:1075600091113BC0826091E09093460136C0211595
:10757000310599F12150310981F590914501913002
:1075800011F4886007C0923011F4806103C08062FA
:10759000909340011092450120C041111DC090916F
:1075A000450167FD0BC081609F3F09F09F5F10920E
:1075B0004801109247012AE431E007C08460211598
:1075C000310509F490E010924601909345015093E3
:1075D0003E0144E191E002C044E190E080933F012C
:1075E0004093420130934401209343019111BEDE48
:1075F00083EA8C0F8093350173C0809126019091AE
:107600002501C92FD0E0823009F441C028F4882335
:1076100051F08130C9F062C0833009F445C0843034
:1076200009F451C05BC053DDCC0FDD1FCC0FDD1F53
:10763000C050DF4F8F858F3F29F083E28093B000E9
:10764000539A6B9A81E04AC06B98923081F030F483
:10765000992359F0913081F4709A0EC0943059F00A
:1076600040F0953049F45A9A07C02E9A05C02F9AD7
:1076700003C0719A01C05C9ACC0FDD1FCC0FDD1FD7
:10768000C050DF4F8F858093B40082E027C08FEF1A
:107690008093B400CC0FDD1FCC0FDD1FC050DF4F37
:1076A0008D8587BD83E01AC053988093B0008FEF1B
:1076B00087BDCC0FDD1FCC0FDD1FC050DF4F8E8587
:1076C00088BD84E00BC08FEF88BD9F5F963019F4B2
:1076D00010920C0190E09093250180E080932601A8
:1076E000C7E4D2E000E2FF24F3949CA5802F81231D
:1076F00009F44BC08DA59430D0F48823C9F19230A1
:1077000010F490E801C090E0282F2695922B80FF7E
:1077100038C08A81883248F48A81FE01E80FF11D61
:1077200093838A818F5F8A8354C01A8221C09730E5
:1077300048F58038F9F49A81992321F1F8828B81F8
:107740008B30B1F48A81843099F4CE01B2DC882385
:1077500079F08EE492DC10E006951F5F0111FCCFFA
:10776000812F92DC8EE689DC6C817D81812F0FDE9A
:1077700080E008C09881911105C09981992341F159
:1077800001C0892F8DA71CA606C0983018F49F5FF2
:107790009CA701C01DA6E297069581E0CB31D807D2
:1077A00009F0A3CFFF91EF91DF91CF91BF91AF91FE
:1077B0009F918F917F916F915F914F913F912F9109
:1077C0001F910F91FF900F900FBE0F901F90189573
:0677D0001A8280E8D7CF09
:040000030000700089
:00000001FF
