:102E00000AB400FCFDCF90938900809388008AB5B6
:102E100081608ABD08959B01F894409131015091E1
:102E2000320160913301709134017894420F531F45
:102E3000611D711DFC01408351836283738308957A
:102E4000CF93C62F7AD5882349F08DE55DD58C2F99
:102E50005BD585E78C1B58D5CF9146C5CF9108959A
:102E6000CF92DF92FF920F931F93CF93DF93062FA2
:102E7000F42E152F62D58823F1F08BED45D5CF2D9B
:102E8000D12F6E0180E2C80ED11C1BEDF9908F2D61
:102E90003BD51F0DCC16DD06C9F7802F35D582ED49
:102EA000801B811B31D5DF91CF911F910F91FF9036
:102EB000DF90CF9019C5DF91CF911F910F91FF90B7
:102EC000DF90CF900895CF93DF93C0E0D1E0DE0193
:102ED000EC912E2F229526952695237011968C9194
:102EE0001197982F9770990F990F922B8695869529
:102EF0008695E695EF71F0E0EC5BF74CE491ED8799
:102F0000E92FF0E0EC5BF74CE491EE87E82FF0E07E
:102F1000EC5BF74CE491EF871296249681E0AC309D
:102F2000B807B1F6DF91CF910895E0E0F1E011929A
:102F300082E0EE37F807D8F38091310190913201A9
:102F4000A0913301B0913401805E9D4EA54FBF4FDB
:102F50008093360190933701A0933801B0933901E3
:102F6000B2CFEDE4F1E0108212AA1092B1011092FA
:102F7000E30110921502109247020895F894EEE3CF
:102F8000F1E01182148216821582128611867894DD
:102F9000089582E00895FF920F931F93CF93DF93DC
:102FA000F62E072F142FC9D4882361F087E3ACD401
:102FB000CF2DD02F112321F08991A6D41150FACF13
:102FC00093D481E0DF91CF911F910F91FF900895ED
:102FD000182FC12FDE63DF738D2F90E09CD52FEF6C
:102FE00080E792E0215080409040E1F700C000006F
:102FF000B8DF80E090E08FD52FEF80E792E021509E
:1030000080409040E1F700C00000ABDFC15021F0EC
:1030100080913F0180FFDECFC6E0C15021F080915A
:103020003F0180FF0CC080913F0180FFD2CFF89418
:1030300080E18093600088E080936000FFCF80E0B3
:1030400090E069D52FEF80E792E0215080409040DA
:10305000E1F700C0000085DF80E090E05CD52FEF55
:1030600080E792E0215080409040E1F700C00000EE
:1030700078DFD3CF14BE0FB6F894A8958091600086
:10308000886180936000109260000FBEC1E6D0E0BE
:1030900010E8188301E008832FEF80E792E02150C9
:1030A00080409040E1F700C000003FDF85B7982FD7
:1030B000916095BF826085BF10BF84E880936400F3
:1030C000E8E6F0E08081846080835F9A729A589A83
:1030D000599A509A519A269A689A279A699A549AB4
:1030E000529A5E9A5D9A569A559A00936E0082E0C3
:1030F00080937000CED384B18F6384B987B1806C24
:1031000087B9789411D5F894188318827894BFD42D
:103110005FD4CF93DF93CDB7DEB7CB5BD1090FB6CA
:10312000F894DEBF0FBECDBFC455DF4F8883CC5AA5
:10313000D0400FD581E08093790280E090E0EBD41D
:10314000C455DF4F2881CC5AD0402223F9F0412CBE
:10315000512CE0E0F0E08491480E511C3196E115CD
:1031600037E1F307C1F768E873E1CE018F559F4F50
:1031700052DE4EE2C655DF4F4883CA5AD0401FE3A5
:1031800000E088EBF82E96E0B92E43C01DE4812EB6
:1031900011E0912EE12CF12C12E3BE2C1E9D60015A
:1031A0001F9DD00C1124F601E35BFE4F8081882324
:1031B00009F4AAC083818B3009F0A6C082818430D3
:1031C00009F0A2C0C40150D3882309F49DC0F601C0
:1031D000E05BFE4F4180528001E00E0D063019F495
:1031E00000E0B5E0BB2E81E090E00B2C01C0880F21
:1031F0000A94EAF7182F10951F7360E070E0CE0173
:103200008F559F4F08DEC655DF4F1882CA5AD040EF
:10321000F12CCB55DF4F188219821A821B82C55AB6
:10322000D040ACDECB54DF4F4882C55BD040CA549F
:10323000DF4F5882C65BD04087EC282E2418251813
:10324000C954DF4F2882C75BD04053E0C755DF4FDA
:103250005883C95AD040C555DF4F1882CB5AD04049
:103260007AEBE72E8B2D90E0E2E3E89F9001E99F57
:10327000300D1124A901435B5E4F1A01FA01339608
:10328000C155DF4FF983E883CF5AD040A901405B95
:103290005E4FCF54DF4F59834883C15BD040FC0160
:1032A000EE0FFF1FCD54DF4FF983E883C35BD0409F
:1032B0004F5F5F4FC854DF4F59834883C85BD0408E
:1032C000E050FF4FC355DF4FF983E883CD5AD0401C
:1032D0003E01F1E86F0E711C9301205E3F4FC65412
:1032E000DF4F39832883CA5BD040C455DF4F388114
:1032F000CC5AD040332319F0112309F406C280912F
:103300003F0180FF0DC001C23FEFE31AF30A42E321
:10331000840E911C56E0E516F10409F03ECF63CF10
:10332000C455DF4F8881CC5AD040811198C0F1013B
:103330008081882309F493C0C155DF4FE881F9816A
:10334000CF5AD04080818B3D09F060C0F10182816D
:10335000833209F05BC0C10187D2882309F456C0CB
:10336000CF54DF4FE881F981C15BD04081A18F113B
:1033700060C0CD54DF4FE881F981C35BD040E0509D
:10338000FF4F818187709F2D9295990F907E892B99
:1033900081838F2D8370A1E0B0E0AC0FBD1FF0E200
:1033A0008F9FA00DB11D112490E2C854DF4FE8811A
:1033B000F981C85BD04001900D929A95E1F7833076
:1033C000A1F4BE016F5F7F4FC655DF4F8881CA5A97
:1033D000D04086D3C655DF4F2881CA5AD0402F5FD0
:1033E000C655DF4F2883CA5AD040F39438EBF31206
:1033F0002CC0C355DF4FE881F981CD5AD040808180
:10340000806C808383E08183A12C17C0C155DF4F7E
:10341000E881F981CF5AD0408081883E51F4F10192
:103420008281823031F4C1011FD2AA24A394811178
:1034300001C0A12CF8EBFF120CC0111108C069EB00
:103440008B2DFEDC68EBF62E07C0A12C02C058EBDA
:10345000F52E6F2D8B2DF4DCF101108201C0A12C13
:10346000C02ED12CF2E3FC9D4001FD9D900C112457
:10347000F401E35BFE4F8081882309F45CC0838103
:103480008D3509F04DC08281833009F049C0CF01EC
:10349000EBD1882309F444C021E030E0002E01C0C4
:1034A000220F0A94EAF7C555DF4F4881CB5AD04026
:1034B000422BC555DF4F4883CB5AD040F401E05B27
:1034C000FE4FE180C601880F991F57EB5E15D8F4B7
:1034D000E9EBEE120BC020951223FC01E050FF4FE8
:1034E0002081206C20832181276009C0FC01E050ED
:1034F000FF4F2081206C20832181287F236021833E
:103500009924939401C0912CFC01E050FF4F8181DC
:1035100087709E2D9295990F907E892B818301C093
:10352000912C22E32C9DF0012D9DF00D1124E35BE5
:10353000FE4F108201C0912CEF1408F03DC08E2D7B
:1035400086958695C655DF4F3881CA5AD040831775
:10355000B8F440E2E49EC0011124D3018619970912
:10356000FC01EA0FFB1FE491ED93C654DF4FE881A5
:10357000F981CA5BD040AE17BF0791F7A3010BC01A
:103580008E2D837041E050E04C0F5D1FF0E28F9F65
:10359000400D511D11246E2D802F62DC68E770E014
:1035A000CE018B559F4F37DC23E0C755DF4F288373
:1035B000C95AD0403AEBE32EF89440913101509132
:1035C000320160913301709134017894CB55DF4F13
:1035D00088819981AA81BB81C55AD04084179507FB
:1035E000A607B70718F09110C1C08BC0C755DF4FB1
:1035F000E881C95AD040E111AEC0F8944091310140
:103600005091320160913301709134017894CF551B
:10361000DF4F88819981AA81BB81C15AD04084172C
:103620009507A607B70748F481E090E00C2C01C08D
:10363000880F0A94EAF780951823F601EE0FFF1F12
:10364000E050FF4F818187708183112309F459C0B5
:10365000212F30E00F5F063009F400E0C901002E91
:1036600002C0959587950A94E2F780FFF3CF33E087
:10367000C755DF4F3883C95AD040802F5ED1882389
:10368000A9F08BE041D1CB54DF4F8881C55BD0409E
:103690003BD1CA54DF4F8881C65BD04035D1C95475
:1036A000DF4F8881C75BD0402FD11ED1E02FF0E0E3
:1036B000EE0FFF1FE050FF4F8181886F8183C5555A
:1036C000DF4F4881CB5AD040842F90E0002E02C0BB
:1036D000959587950A94E2F780FD40C062E370E01B
:1036E000CE018B559F4F97DBC755DF4F5881C95A85
:1036F000D0405150C755DF4F5883C95AD0408AEB4C
:10370000E82EE1DBAA2009F4F0CD1092790236DC34
:1037100098EBF91226C080E090E0E0E0F0E0249120
:10372000820F911D3196E11527E1F207C1F7481686
:103730005906B9F403E010E0812FFFD0882329F067
:1037400088EEE2D08AEEE0D0CFD01F5F1630A1F72E
:10375000015089F73DD1992031F06FCF68E770E0D3
:10376000BFCF83E035DC111188CFCBCFC755DF4FFA
:10377000F881C95AD040FF2309F43FCF5ECFF894B7
:1037800004E00EBF0FEF0DBF7894C3DC80E0F7DFDD
:083790007ED181E0F4DF1CDCB6
:1038000031C00000FDCF0000FBCF0000F9CF000069
:10381000C2CB00000FC100000EC10000EFC10000CC
:1038200072C10000B5CF000094C10000DAC00000F2
:10383000A1C100000FC10000ACCB0000ACCF000064
:10384000DDC10000FFFEFDFBFAF8F5F2EEEAE6E06E
:10385000DAD3CCC3BAB0A5998C7E6F5F4E3B2813E8
:103860000D090301112406DCFC012281339690E04E
:10387000215018F08191980FFBCF81E0923D09F023
:1038800080E008952E9870982F9871985C985A98B7
:1038900008958FEF87BD88BD16BC95B5906895BD1E
:1038A00095B5906495BD93EA94BD93E29093B00072
:1038B00090E89093B3008093B4001092B200E1EBD3
:1038C000F0E080818064808383B5806883BD83B5A8
:1038D000826083BD83B5816083BD82E085BD8083C6
:1038E00083B58F7783BD089580EB97E189DAEDE4A6
:1038F000F1E0118213AA1092B2011092E401109229
:1039000016021092480208950F931F93CF93DF93EE
:10391000082FC8E0D0E011E0812F802319F08CE05F
:1039200096E002C08EED9EE06BDA110F2197A1F7B1
:10393000DF91CF911F910F910895F89442E3849FF6
:10394000F0011124E35BFE4F95A5911103C091E0B6
:10395000918301C090E078949923C1F121E030E097
:10396000A90102C0440F551F8A95E2F7CA012091B0
:1039700081002111FCCF98E190938100109280008A
:10398000109285001092840021E030E0309389008D
:103990002093880093E0909380002CE036E03093F1
:1039A000890020938800B19A90916F009260909363
:1039B0006F0080938A008AB581608ABD89E1809317
:1039C000810080EB97E11CDA81E0089580E00895A2
:1039D000F894ABDA04E00EBF0FEF0DBF78940C94AF
:1039E00000001F920F920FB60F9211248F939F9396
:1039F00080918A0087B983B995E39A95F1F7000021
:103A000083B985FD599886B995E09A95F1F700003C
:103A100017B886B90AB400FC03C01092810003C035
:103A20008AB58E7F8ABD9F918F910F900FBE0F90A8
:103A30001F90189518951F920F920FB60F92112490
:103A40008F9386B5809327018F910F900FBE0F90B3
:103A50001F90189590E8899FF0011124F89483E055
:103A600080935700E895789407B600FCFDCFF89452
:103A700085E080935700E895789407B600FCFDCF69
:103A8000F89481E180935700E895789408950F9316
:103A90001F93CF93DF9310E020E037E101E080E057
:103AA00090E0E901C80FD91F8038910569F0FE0147
:103AB00045915491F894FC010A0100935700E89550
:103AC000112478940296EDCF812FC4DF1F5F1E3240
:103AD00011F09E01E4CFDF91CF911F910F910895D6
:103AE000E0E0F0E091E0F894DB012D913D91BD0123
:103AF000090190935700E895112478943296E038A4
:103B0000F10589F7A7CF81E080930C0180910C012A
:103B10008111FCCFD8C9E0E0F1E08193919321E0DD
:103B2000EC30F207D1F7EFCF8EE680937C0085EC86
:103B300080937A0080937A0080917A0086FDFCCF92
:103B40008091790010927A008A3710F082E040CAA2
:103B50000895F894E1E3F1E080819181A281B3813D
:103B6000805E9D4EA54FBF4F85839683A783B08708
:103B700078940895EEDFF89480E88093610081E006
:103B800080936100789415BC7DDE1092B10014BC66
:103B90001092B0006B982FEF80E792E021508040A8
:103BA0009040E1F700C000004F9BFECF2FEF80E771
:103BB00092E0215080409040E1F700C000008091E9
:103BC0006D00806880936D0085E083BF889580914B
:103BD0006D008F7780936D00F89480E090E09BDF1C
:103BE00058DECCD97894A0DFF89480E88093610007
:103BF0001092610078941092410108951F920F92E3
:103C00000FB60F921124EF92FF920F931F932F93F1
:103C10003F934F935F936F937F938F939F93AF9354
:103C2000BF93CF93DF93EF93FF9316B11095912F2E
:103C3000907215FD589886B578948C5E26B5281735
:103C4000E8F39111589A16B917B985E08A95F1F7FA
:103C5000000017B816B98091B20087FFB3C0C091B9
:103C6000350180E28C0F8D3708F4A9C080913101B5
:103C700090913201A0913301B09134010196A11DC0
:103C8000B11D8093310190933201A0933301B09321
:103C900034014091360150913701609138017091A3
:103CA0003901481759076A077B0708F463DF8091D9
:103CB0003F0169B1562F5095551F5527551F9091BB
:103CC0003E0140914201209143013091440159133A
:103CD00049C04111415067FD2FC02115310529F020
:103CE0002150310911F41092450160914701709102
:103CF00048016F5F7F4F70934801609347016137C0
:103D000097E1790730F080681092480110924701DE
:103D100049C0693B9BE0790710F0806443C0613B78
:103D2000744008F43FC09091460191113BC08260FD
:103D300091E09093460136C02115310599F121504B
:103D4000310981F590914501913011F4886007C0E7
:103D5000923011F4806103C0806290934001109210
:103D6000450120C041111DC09091450167FD0BC068
:103D700081609F3F09F09F5F1092480110924701B8
:103D80002AE431E007C084602115310509F490E090
:103D9000109246019093450150933E0144E191E019
:103DA00002C044E190E080933F0140934201309390
:103DB0004401209343019111CCDE83EA8C0F809360
:103DC000350173C08091260190912501C92FD0E063
:103DD000823009F441C028F4882351F08130C9F0C1
:103DE00062C0833009F445C0843009F451C05BC01F
:103DF00049DDCC0FDD1FCC0FDD1FC050DF4F8F859D
:103E00008F3F29F083E28093B000539A6B9A81E050
:103E10004AC06B98923081F030F4992359F0913078
:103E200081F4709A0EC0943059F040F0953049F406
:103E30005A9A07C02E9A05C02F9A03C0719A01C0E2
:103E40005C9ACC0FDD1FCC0FDD1FC050DF4F8F857C
:103E50008093B40082E027C08FEF8093B400CC0F32
:103E6000DD1FCC0FDD1FC050DF4F8D8587BD83E088
:103E70001AC053988093B0008FEF87BDCC0FDD1F21
:103E8000CC0FDD1FC050DF4F8E8588BD84E00BC096
:103E90008FEF88BD9F5F963019F410920C0190E06F
:103EA0009093250180E080932601C7E4D2E000E2F0
:103EB000F12CEE24E3949CA5802F812309F43EC0CD
:103EC0008DA59430D0F48823B1F1923010F490E8AD
:103ED00001C090E0282F2695922B80FF2BC08A816D
:103EE000883248F48A81FE01E80FF11D93838A81AC
:103EF0008F5F8A8338C01A8214C09730E0F480380C
:103F000091F49A819923B9F0E8828B818B3049F43E
:103F10008A81843031F4CE01A7DC882311F0FF249C
:103F2000F39480E008C09881911105C0998199238C
:103F3000C9F001C0892F8DA71CA606C0983018F4BF
:103F40009F5F9CA701C01DA6E297069581E0CB313B
:103F5000D80709F0B0CFFF2041F08091790281119C
:103F600004C014DC1A8280E8E6CFFF91EF91DF9164
:103F7000CF91BF91AF919F918F917F916F915F9101
:103F80004F913F912F911F910F91FF90EF900F90C4
:083F90000FBE0F901F90189561
:0400000300003800C1
:00000001FF
