:103800000C9432380C9400380C9400380C94003826
:103810000C94D6300C9429390C942A390C940B3A18
:103820000C9490390C94EC340C94B8390C94023903
:103830000C94C9390C9439390C94D4300C94EF346D
:043840000C940B3A9F
:106000000AB400FCFDCF90938900809388008AB584
:1060100081608ABD08959B01F894409131015091AF
:10602000320160913301709134017894420F531F13
:10603000611D711DFC014083518362837383089548
:10604000CF93C62F0E949F38882369F08DE50E9468
:1060500085388C2F0E94853885E78C1B0E948538F7
:10606000CF910C947438CF910895CF92DF92FF9224
:106070000F931F93CF93DF93062FF42E152F0E94BB
:106080009F38882319F18BED0E948538CF2DD12FB1
:106090006E0180E2C80ED11C1BEDF9908F2D0E947D
:1060A00085381F0DCC16DD06C1F7802F0E9485387C
:1060B00082ED801B811B0E948538DF91CF911F915B
:1060C0000F91FF90DF90CF900C947438DF91CF91B7
:1060D0001F910F91FF90DF90CF900895CF93DF93A2
:1060E000C0E0D1E0DE01EC912E2F22952695269579
:1060F000237011968C911197982F9770990F990F83
:10610000922B869586958695E695EF71F0E0EC5B8F
:10611000FF48E491ED87E92FF0E0EC5BFF48E49164
:10612000EE87E82FF0E0EC5BFF48E491EF871296F2
:10613000249681E0AC30B807B1F6DF91CF91089595
:10614000E0E0F1E0119282E0EE37F807D8F38091B9
:10615000310190913201A0913301B0913401805E00
:106160009D4EA54FBF4F8093360190933701A0936A
:106170003801B0933901B2CFEDE4F1E0108212AAF8
:106180001092B1011092E301109215021092470291
:106190000895F894EEE3F1E01182148216821582DC
:1061A000128611867894089582E00895FF920F93E5
:1061B0001F93CF93DF93F62E072F142FC0D788237A
:1061C00061F087E3A2D7CF2DD02F112321F0899141
:1061D0009CD71150FACF88D781E0DF91CF911F91E2
:1061E0000F91FF900895182FC12FDE63DF738D2F5D
:1061F00090E00E9499392FEF80E792E02150804093
:106200009040E1F700C00000B7DF80E090E00E941E
:1062100099392FEF80E792E0215080409040E1F7DC
:1062200000C00000A9DFC15021F080913F0180FF34
:10623000DCCFC6E0C15021F080913F0180FF0CC04F
:1062400080913F0180FFD0CFF89480E1809360007F
:1062500088E080936000FFCF80E090E00E94993951
:106260002FEF80E792E0215080409040E1F700C09E
:10627000000082DF80E090E00E9499392FEF80E7F4
:1062800092E0215080409040E1F700C0000074DFB0
:10629000D1CFCF93DF93CDB7DEB7CB5BD1090FB6AC
:1062A000F894DEBF0FBECDBFC555DF4F8883CB5AF4
:1062B000D0400E94B83981E08093790280E090E07C
:1062C0000E949939C555DF4F2881CB5AD0402223EF
:1062D000F9F0212C312CE0E0F0E08491280E311C03
:1062E0003196E11537E1F307C1F760E177E2CE01BE
:1062F0008F559F4F90DE4EE2C655DF4F4883CA5AF6
:10630000D0401FE300E088EBF82E96E0B92E43C0A2
:106310001DE4812E11E0912EE12CF12C12E3BE2C14
:106320001E9D60011F9DD00C1124F601E35BFE4F02
:106330008081882309F4A9C083818B3009F0A5C02E
:106340008281843009F0A1C0C4018ED6882309F46B
:106350009CC0F601E05BFE4F2180328001E00E0D13
:10636000063019F400E0B5E0BB2E81E090E00B2C84
:1063700001C0880F0A94EAF7182F10951F7360E088
:1063800070E0CE018F559F4F46DEC655DF4F188215
:10639000CA5AD040F12CCB55DF4F188219821A828D
:1063A0001B82C55AD040F5DECB54DF4F2882C55B37
:1063B000D040CA54DF4F3882C65BD04087EC821988
:1063C0008319C954DF4F8883C75BD04053E0C7555A
:1063D000DF4F5883C95AD040C455DF4F1882CC5A7A
:1063E000D0407AEBE72E8B2D90E0E2E3E89F90011E
:1063F000E99F300D1124A901435B5E4F3A01FA0178
:106400003396C155DF4FF983E883CF5AD040A901B5
:10641000405B5E4FCF54DF4F59834883C15BD04010
:10642000FC01EE0FFF1FCD54DF4FF983E883C35B00
:10643000D0404F5F5F4FC854DF4F59834883C85BDC
:10644000D040E050FF4FC355DF4FF983E883CD5A6A
:10645000D0402E01F1E84F0E511C9201205E3F4FBB
:10646000C654DF4F39832883CA5BD040C555DF4F00
:106470003881CB5AD040332319F0112309F406C2D6
:1064800080913F0180FF0DC001C23FEFE31AF30A84
:1064900042E3840E911C56E0E516F10409F03FCF6B
:1064A00064CFC555DF4F8881CB5AD040811198C049
:1064B000F3018081882309F493C0C155DF4FE8813F
:1064C000F981CF5AD04080818B3D09F060C0F30143
:1064D0008281833209F05BC0C301C6D5882309F4E9
:1064E00056C0CF54DF4FE881F981C15BD04081A114
:1064F0008F1160C0CD54DF4FE881F981C35BD0407C
:10650000E050FF4F818187709F2D9295990F907E6B
:10651000892B81838F2D8370A1E0B0E0AC0FBD1F6C
:10652000F0E28F9FA00DB11D112490E2C854DF4FFF
:10653000E881F981C85BD04001900D929A95E1F70E
:106540008330A1F4BE016F5F7F4FC655DF4F888156
:10655000CA5AD040D2D6C655DF4F2881CA5AD04039
:106560002F5FC655DF4F2883CA5AD040F39438EBCB
:10657000F3122CC0C355DF4FE881F981CD5AD040CA
:106580008081806C808383E08183A12C17C0C155FA
:10659000DF4FE881F981CF5AD0408081883E51F4A5
:1065A000F3018281823031F4C3015ED5AA24A39421
:1065B000811101C0A12CF8EBFF120CC0111108C011
:1065C00069EB8B2D3DDD68EBF62E07C0A12C02C0D8
:1065D00058EBF52E6F2D8B2D33DDF301108201C0AA
:1065E000A12CC02ED12CF2E3FC9D4001FD9D900C0E
:1065F0001124F401E35BFE4F8081882309F45CC021
:1066000083818D3509F04DC08281833009F049C006
:10661000CF012AD5882309F444C021E030E0002EC0
:1066200001C0220F0A94EAF7C455DF4F4881CC5AC3
:10663000D040422BC455DF4F4883CC5AD040F401A0
:10664000E05BFE4FE180C601880F991F57EB5E1596
:10665000D8F4E9EBEE120BC020951223FC01E050B8
:10666000FF4F2081206C20832181276009C0FC011D
:10667000E050FF4F2081206C20832181287F236000
:1066800021839924939401C0912CFC01E050FF4F89
:10669000818187709E2D9295990F907E892B8183A1
:1066A00001C0912C22E32C9DF0012D9DF00D1124B1
:1066B000E35BFE4F108201C0912CEF1408F03DC047
:1066C0008E2D86958695C655DF4F3881CA5AD040A3
:1066D0008317B8F440E2E49EC0011124D20184196A
:1066E0009509FC01EA0FFB1FE491ED93C654DF4FBF
:1066F000E881F981CA5BD040AE17BF0791F7A201CC
:106700000BC08E2D837041E050E04C0F5D1FF0E216
:106710008F9F400D511D11246E2D802FA6DC68E740
:1067200070E0CE018B559F4F76DC23E0C755DF4FDD
:106730002883C95AD0403AEBE32EF89440913101B6
:106740005091320160913301709134017894CB55AE
:10675000DF4F88819981AA81BB81C55AD0408417B7
:106760009507A607B70718F09110CCC08BC0C75586
:10677000DF4F9881C95AD0409111AEC0F894409132
:10678000310150913201609133017091340178945C
:10679000CF55DF4F88819981AA81BB81C15AD040F2
:1067A00084179507A607B70748F481E090E00C2C02
:1067B00001C0880F0A94EAF780951823F601EE0FBE
:1067C000FF1FE050FF4F818187708183112309F4FF
:1067D00059C0212F30E00F5F063009F400E0C901F5
:1067E000002E02C0959587950A94E2F780FFF3CFBB
:1067F00033E0C755DF4F3883C95AD040802F9FD42C
:106800008823A9F08BE081D4CB54DF4F8881C55B0E
:10681000D0407BD4CA54DF4F8881C65BD04075D44A
:10682000C954DF4F8881C75BD0406FD45DD4E02F5F
:10683000F0E0EE0FFF1FE050FF4F8181886F8183F2
:10684000C455DF4F4881CC5AD040842F90E0002EB1
:1068500002C0959587950A94E2F780FD40C062E3F7
:1068600070E0CE018B559F4FD6DBC755DF4F588167
:10687000C95AD0405150C755DF4F5883C95AD040EC
:106880008AEBE82E2BDCAA2009F4F0CD10927902D5
:1068900080DC03E010E0812F52D4882329F088EEB9
:1068A00034D48AEE32D420D41F5F1630A1F70150C1
:1068B00089F788EBF81216C080E090E0E0E0F0E0A5
:1068C0002491820F911D3196E11527E1F207C1F75E
:1068D0002816390639F408C0992089F06FCF68E787
:1068E00070E0BFCF83E07FDCC555DF4FE881CB5A36
:1068F000D040E11102C082E001C081E06CD41111EE
:106900007DCFC0CFC755DF4FF881C95AD040FF2394
:1069100009F434CF53CFF89408E00EBF0FEF0DBF4A
:106920007894B7DC87EF84BF0FB6F894A895809170
:106930006000886180936000109260000FBEC0E824
:10694000C0936100D1E0D09361002FEF80E792E027
:10695000215080409040E1F700C00000F1DB85B796
:10696000982F916095BF826085BFC0BF84E88093F7
:106970006400809168008460809368005F9A729AD6
:10698000589A599A269A689A279A699A549A529AC2
:106990005E9A5D9A569A559AD0936E0082E08093E3
:1069A000700077D384B18F6384B987B1806C87B965
:1069B0007894C8D4F894C0936100109261007894E0
:1069C00075D404B601FE04C08DEF84BF81E0A3DF5F
:1069D00080E001D480E09FDF69D481E09CDF03DCAC
:1070000031C00000FDCF0000FBCF0000F9CF000031
:10701000CDC800001EC100001DC10000FCC1000061
:107020007FC10000D9CC0000A3C10000EBC000006C
:10703000B0C100001EC10000B7C80000D0CC0000E5
:10704000EAC10000FFFEFDFBFAF8F5F2EEEAE6E029
:10705000DAD3CCC3BAB0A5998C7E6F5F4E3B2813B0
:107060000D09030111245EDCFC012281339690E0BE
:10707000215018F08191980FFBCF81E0923D09F0EB
:1070800080E008952E9870982F9871985C985A987F
:1070900008958FEF87BD88BD16BC95B5906895BDE6
:1070A00095B5906495BD93EA94BD93E29093B0003A
:1070B00090E89093B3008093B4001092B200E1EB9B
:1070C000F0E080818064808383B5806883BD83B570
:1070D000826083BD83B5816083BD82E085BD80838E
:1070E00083B58F7783BD089580EB97E10E940030D0
:1070F000EDE4F1E0118213AA1092B2011092E401C2
:10710000109216021092480208950F931F93CF9386
:10711000DF93082FC8E0D0E011E0812F802319F021
:107120008CE096E002C08EED9EE00E940030110FD0
:10713000219799F7DF91CF911F910F910895F894BE
:1071400042E3849FF0011124E35BFE4F95A591116A
:1071500003C091E0918301C090E078949923C9F134
:1071600021E030E0A90102C0440F551F8A95E2F7E3
:10717000CA01209181002111FCCF98E190938100F8
:1071800010928000109285001092840021E030E07F
:10719000309389002093880093E0909380002CE046
:1071A00036E03093890020938800B19A90916F0067
:1071B000926090936F0080938A008AB581608ABD47
:1071C00089E18093810080EB97E10E94003081E0AB
:1071D000089580E00895C82FF8940E94A030C093CD
:1071E000280108E00EBF0FEF0DBF78940C9400004B
:1071F00085EC80937A0080917A0086FDFCCF8091A7
:10720000790008951F920F920FB60F9211248F9359
:107210009F9380918A0087B983B995E39A95F1F796
:10722000000083B986B995E09A95F1F7000017B888
:1072300086B90AB400FC03C01092810003C08AB56D
:107240008E7F8ABD9F918F910F900FBE0F901F90E0
:10725000189518951F920F920FB60F9211248F93C5
:1072600086B5809327018F910F900FBE0F901F90CE
:10727000189590E8899FF0011124F89483E0809399
:107280005700E895789407B600FCFDCFF89485E0A8
:1072900080935700E895789407B600FCFDCFF894EA
:1072A00081E180935700E895789408950F931F9398
:1072B000CF93DF93C0E000E019E3D1E080E090E0FD
:1072C000F801E80FF91F25913491F894FC010901A8
:1072D000D0935700E8951124789402968038910550
:1072E00079F700581F4F8C2FC4DFCF5FCE3231F7B4
:1072F000DF91CF911F910F910895E0E0F0E091E0D0
:10730000F894DB012D913D91BD0109019093570047
:10731000E895112478943296E038F10589F7A9CFE1
:1073200081E080930C0180910C018111FCCF0C94C1
:107330006E30E0E0F1E08193919321E0EC30F207D0
:10734000D1F7EECF8EE680937C0085EC80937A00B7
:107350008DE58A95F1F700004BDF4ADF49DF48DF12
:1073600010927A008A3718F082E00C94F330089576
:10737000F894E1E3F1E080819181A281B381805EA4
:107380009D4EA54FBF4F85839683A783B087789482
:107390000895EEDFF89480E88093610081E08093A7
:1073A0006100789415BC6EDE1092B10014BC10928E
:1073B000B0006B982FEF80E792E021508040904022
:1073C000E1F700C000004F9BFECF2FEF80E792E077
:1073D000215080409040E1F700C0000080916D0096
:1073E000806880936D0085E083BF889580916D00F3
:1073F0008F7780936D00F8944CDE0E94C9307894AA
:10740000A1DFF89480E88093610010926100789485
:107410001092410108951F920F920FB60F921124FE
:10742000EF92FF920F931F932F933F934F935F938E
:107430006F937F938F939F93AF93BF93CF93DF937C
:10744000EF93FF9316B1109586B578948C5E96B540
:107450009817E8F316B917B985E08A95F1F7000097
:1074600017B816B98091B20087FFB3C0C09135013B
:1074700080E28C0F8D3708F4A9C080913101909182
:107480003201A0913301B09134010196A11DB11DCB
:107490008093310190933201A0933301B093340172
:1074A0004091360150913701609138017091390156
:1074B000481759076A077B0708F46BDF80913F0183
:1074C00069B1562F5095551F5527551F90913E0174
:1074D000409142012091430130914401591349C028
:1074E0004111415067FD2FC02115310529F0215070
:1074F000310911F4109245016091470170914801E2
:107500006F5F7F4F7093480160934701613797E148
:10751000790730F08068109248011092470149C005
:10752000693B9BE0790710F0806443C0613B744085
:1075300008F43FC09091460191113BC0826091E0F8
:107540009093460136C02115310599F1215031093A
:1075500081F590914501913011F4886007C0923017
:1075600011F4806103C08062909340011092450144
:1075700020C041111DC09091450167FD0BC0816085
:107580009F3F09F09F5F10924801109247012AE443
:1075900031E007C084602115310509F490E01092B4
:1075A00046019093450150933E0144E191E002C0B1
:1075B00044E190E080933F014093420130934401C5
:1075C000209343019111D4DE83EA8C0F809335011F
:1075D00073C08091260190912501C92FD0E082309F
:1075E00009F441C028F4882351F08130C9F062C009
:1075F000833009F445C0843009F451C05BC042DDDA
:10760000CC0FDD1FCC0FDD1FC050DF4F8F858F3FAC
:1076100029F083E28093B000539A6B9A81E04AC0CC
:107620006B98923081F030F4992359F0913081F4C5
:10763000709A0EC0943059F040F0953049F45A9A3F
:1076400007C02E9A05C02F9A03C0719A01C05C9A98
:10765000CC0FDD1FCC0FDD1FC050DF4F8F85809317
:10766000B40082E027C08FEF8093B400CC0FDD1F01
:10767000CC0FDD1FC050DF4F8D8587BD83E01AC062
:1076800053988093B0008FEF87BDCC0FDD1FCC0FD8
:10769000DD1FC050DF4F8E8588BD84E00BC08FEFAB
:1076A00088BD9F5F963019F410920C0190E0909382
:1076B000250180E080932601C7E4D2E000E2F12CAE
:1076C000EE24E3949CA5802F812309F43EC08DA570
:1076D0009430D0F48823B1F1923010F490E801C0D6
:1076E00090E0282F2695922B80FF2BC08A8188322C
:1076F00048F48A81FE01E80FF11D93838A818F5F30
:107700008A8338C01A8214C09730E0F4803891F42C
:107710009A819923B9F0E8828B818B3049F48A8170
:10772000843031F4CE01A0DC882311F0FF24F394DF
:1077300080E008C09881911105C099819923C9F012
:1077400001C0892F8DA71CA606C0983018F49F5F32
:107750009CA701C01DA6E297069581E0CB31D80712
:1077600009F0B0CFFF2041F080917902811104C06F
:1077700031D91A8280E8E6CFFF91EF91DF91CF9166
:10778000BF91AF919F918F917F916F915F914F9139
:107790003F912F911F910F91FF90EF900F900FBE8F
:0677A0000F901F901895E8
:040000030000700089
:00000001FF
