:10B800000C94225C0C94005C0C94005C0C94005C26
:10B810000C94DB5E0C94375D0C940F5D0C94385DDA
:10B820000C94AB5E0C94005C0C94005C0C94105D6A
:10B830000C94005C0C94005C0C94005C0C94005C18
:10B840000C94675D1124CFEFCDBFD4E0DEBF8091B3
:10B8500068008460809368008EE680937C0080910D
:10B860007A008B7F80937A0080917A008D7F80931D
:10B870007A0080917A00816080937A00269A689A93
:10B88000279A699A549A529A5E9A5D9A569A559A4C
:10B8900081E080936E0082E08093700094B19F639A
:10B8A00094B997B1906C97B99FEF97BD98BD16BCAE
:10B8B00025B5206825BD25B5206425BD23EA24BD16
:10B8C00023E22093B00020E82093B3009093B400CB
:10B8D0001092B2009091B10090649093B10093B532
:10B8E000906893BD93B5926093BD93B5916093BDFD
:10B8F00085BD8093B10083B58F7783BD5F9A85B78F
:10B90000982F916095BF826085BF2093610010924F
:10B910006100E0E0F1E08FEF8083818382833496E1
:10B9200091E0E831F907C1F778940C940000B09BDE
:10B93000FECF9093890080938800B09A08950F936A
:10B940001F93CF93DF93082FC8E0D0E011E0812F41
:10B95000802319F08CE096E002C08EED9EE00E94FC
:10B96000975C110F219799F7DF91CF911F910F915C
:10B970000895CF93DF93AAE6B4E0E1EEF3E030E27E
:10B9800040E851E09081232F2823B1F19430E0F476
:10B990002181222379F1923010F490E801C090E0E7
:10B9A000622F6695962B20FF0DC02C91273840F40E
:10B9B000EF01C20FD11D9A832F5F2C9341831AC0D0
:10B9C000118217C0918316C09730A0F491819038EE
:10B9D00049F49C91992371F0EF01C657DF4F5883CA
:10B9E000118208C0EF01C657DF4F9881911102C044
:10B9F00041831C92108206C0983018F49F5F908398
:10BA000001C01182EB58F1093695AB58B10990E0AD
:10BA1000EF39F90709F0B6CFDF91CF910895189566
:10BA20001F920F920FB60F9211242F933F938F9373
:10BA30009F9390918A0037B186B1892327B1292B32
:10BA400027B993B92AE12A95F1F700C093B986B9CD
:10BA50009AE19A95F1F700C037B986B99F918F9115
:10BA60003F912F910F900FBE0F901F901895189532
:10BA70001F920F920FB60F9211242F933F934F9363
:10BA80005F936F937F938F939F93AF93BF93EF9346
:10BA9000FF9386B1809586B987B99AE19A95F1F7B7
:10BAA00000C017B886B978940E94B95CFF91EF91F5
:10BAB000BF91AF919F918F917F916F915F914F91C6
:10BAC0003F912F910F900FBE0F901F9018951F92CE
:10BAD0000F920FB60F9211242F933F934F935F93C2
:10BAE0006F937F938F939F93AF93BF93EF93FF9346
:10BAF00086B1809586B987B97AE17A95F1F700C069
:10BB000017B886B9789490911A0140911901242FA1
:10BB100030E0923009F448C028F4992351F0913074
:10BB2000F9F06BC0933009F44DC0943009F45AC059
:10BB300064C02E9870982F9871985C985A98220F2C
:10BB4000331F220F331FF901E050FF4F92819F3FB7
:10BB500029F093E29093B000539A6B9A91E04DC014
:10BB60006B98423081F030F4442359F0413081F435
:10BB7000709A0EC0443059F040F0453049F45A9A5A
:10BB800007C02E9A05C02F9A03C0719A01C05C9A13
:10BB9000220F331F220F331FF901E050FF4F928114
:10BBA0009093B40092E029C09FEF9093B400220FCD
:10BBB000331F220F331FF901E050FF4F908197BDD3
:10BBC00093E01BC053989093B0009FEF97BD220F56
:10BBD000331F220F331FF901E050FF4F918198BDB1
:10BBE00094E00BC09FEF98BD4F5F463019F4109260
:10BBF000180140E04093190190E090931A010E94CF
:10BC0000B95C60911F0180E2860F8D3708F490C007
:10BC100080911B0190911C01A0911D01B0911E010A
:10BC20000196A11DB11D80931B0190931C01A0934F
:10BC30001D01B0931E018091210159B1452F4095FE
:10BC4000441F4427441F70912001909123012091AB
:10BC5000240130912501471344C09111915057FDA3
:10BC60002AC02115310529F02150310911F4109213
:10BC7000260140912801509129014F5F5F4F509359
:10BC800029014093280149357BE1570710F080686E
:10BC900045C0413777E1570710F080643FC0413D10
:10BCA0005740E0F140912701411138C0826041E0E6
:10BCB0004093270133C02115310581F1215031090D
:10BCC00069F540912601413011F4886007C0423087
:10BCD00011F4806103C0806240932201109226011A
:10BCE0001DC091111AC09091260157FD0BC08160B3
:10BCF0009F3F09F09F5F10922901109228012AE4CA
:10BD000031E007C084602115310509F490E01092FC
:10BD10002701909326014093200194E18093210113
:10BD200090932301309325012093240183EA860F09
:10BD300080931F01FF91EF91BF91AF919F918F91E0
:10BD40007F916F915F914F913F912F910F900FBE17
:10BD50000F901F90189520E8829FC0011124DB01ED
:10BD6000E0E0F0E021E0F8944D915D910A0120932C
:10BD70005700E895112478943296E038F10599F748
:10BD8000F89423E0FC0120935700E895789407B6D7
:10BD900000FCFDCFF89425E0FC0120935700E895C6
:10BDA000789407B600FCFDCFF89481E180935700AA
:10BDB000E89578940895FF920F931F93CF93DF93A4
:10BDC000F62E072F142F00004BE8849FF00111245A
:10BDD000E65DFE4F9181911146C021E030E0A9015E
:10BDE00002C0440F551F8A95E2F7CA0198E190936B
:10BDF00081001092800080938A001092850010923A
:10BE00008400309389002093880083E08093800031
:10BE10008CE096E09093890080938800B19AB09A64
:10BE200080916F00826080936F0089E18093810030
:10BE300080EB97E10E94975C87E30E949F5CCF2D87
:10BE4000D02F112329F089910E949F5C1150F9CFC6
:10BE500080EB97E10E94975CB09BFECFB09AB09BBD
:10BE6000FECF10928100DF91CF911F910F91FF9033
:02BE7000089533
:040000030000B80041
:00000001FF
